{"contracts/RandomIpfsNFT.sol":{"RandomIpfsNFT":{"abi":[{"inputs":[{"internalType":"address","name":"_VRFCoordinator","type":"address"},{"internalType":"bytes32","name":"_gasLane","type":"bytes32"},{"internalType":"uint64","name":"_subscriptionId","type":"uint64"},{"internalType":"uint32","name":"_callbackGasLimit","type":"uint32"}],"stateMutability":"nonpayable","type":"constructor"},{"inputs":[{"internalType":"address","name":"have","type":"address"},{"internalType":"address","name":"want","type":"address"}],"name":"OnlyCoordinatorCanFulfill","type":"error"},{"inputs":[{"internalType":"uint256","name":"requestId","type":"uint256"},{"internalType":"uint256[]","name":"randomWords","type":"uint256[]"}],"name":"rawFulfillRandomWords","outputs":[],"stateMutability":"nonpayable","type":"function"},{"inputs":[],"name":"requestNft","outputs":[{"internalType":"uint256","name":"requestId","type":"uint256"}],"stateMutability":"nonpayable","type":"function"}],"devdoc":{"kind":"dev","methods":{},"version":1},"evm":{"bytecode":{"linkReferences":{},"object":"61012060405234801561001157600080fd5b506040516108c03803806108c0833981810160405281019061003391906101f4565b838073ffffffffffffffffffffffffffffffffffffffff1660808173ffffffffffffffffffffffffffffffffffffffff1681525050508373ffffffffffffffffffffffffffffffffffffffff1660a08173ffffffffffffffffffffffffffffffffffffffff16815250508260c081815250508167ffffffffffffffff1660e08167ffffffffffffffff16815250508063ffffffff166101008163ffffffff16815250505050505061025b565b600080fd5b600073ffffffffffffffffffffffffffffffffffffffff82169050919050565b600061010f826100e4565b9050919050565b61011f81610104565b811461012a57600080fd5b50565b60008151905061013c81610116565b92915050565b6000819050919050565b61015581610142565b811461016057600080fd5b50565b6000815190506101728161014c565b92915050565b600067ffffffffffffffff82169050919050565b61019581610178565b81146101a057600080fd5b50565b6000815190506101b28161018c565b92915050565b600063ffffffff82169050919050565b6101d1816101b8565b81146101dc57600080fd5b50565b6000815190506101ee816101c8565b92915050565b6000806000806080858703121561020e5761020d6100df565b5b600061021c8782880161012d565b945050602061022d87828801610163565b935050604061023e878288016101a3565b925050606061024f878288016101df565b91505092959194509250565b60805160a05160c05160e0516101005161061c6102a460003960006101b90152600061019601526000610175015260006101390152600081816077015260cb015261061c6000f3fe608060405234801561001057600080fd5b50600436106100365760003560e01c80631fe543e31461003b578063aa15249114610057575b600080fd5b610055600480360381019061005091906103e9565b610075565b005b61005f610135565b60405161006c9190610454565b60405180910390f35b7f000000000000000000000000000000000000000000000000000000000000000073ffffffffffffffffffffffffffffffffffffffff163373ffffffffffffffffffffffffffffffffffffffff161461012757337f00000000000000000000000000000000000000000000000000000000000000006040517f1cf993f400000000000000000000000000000000000000000000000000000000815260040161011e9291906104b0565b60405180910390fd5b6101318282610242565b5050565b60007f000000000000000000000000000000000000000000000000000000000000000073ffffffffffffffffffffffffffffffffffffffff16635d3b1d307f00000000000000000000000000000000000000000000000000000000000000007f000000000000000000000000000000000000000000000000000000000000000060037f000000000000000000000000000000000000000000000000000000000000000060016040518663ffffffff1660e01b81526004016101fa959493929190610551565b6020604051808303816000875af1158015610219573d6000803e3d6000fd5b505050506040513d601f19601f8201168201806040525081019061023d91906105b9565b905090565b5050565b6000604051905090565b600080fd5b600080fd5b6000819050919050565b61026d8161025a565b811461027857600080fd5b50565b60008135905061028a81610264565b92915050565b600080fd5b6000601f19601f8301169050919050565b7f4e487b7100000000000000000000000000000000000000000000000000000000600052604160045260246000fd5b6102de82610295565b810181811067ffffffffffffffff821117156102fd576102fc6102a6565b5b80604052505050565b6000610310610246565b905061031c82826102d5565b919050565b600067ffffffffffffffff82111561033c5761033b6102a6565b5b602082029050602081019050919050565b600080fd5b600061036561036084610321565b610306565b905080838252602082019050602084028301858111156103885761038761034d565b5b835b818110156103b1578061039d888261027b565b84526020840193505060208101905061038a565b5050509392505050565b600082601f8301126103d0576103cf610290565b5b81356103e0848260208601610352565b91505092915050565b60008060408385031215610400576103ff610250565b5b600061040e8582860161027b565b925050602083013567ffffffffffffffff81111561042f5761042e610255565b5b61043b858286016103bb565b9150509250929050565b61044e8161025a565b82525050565b60006020820190506104696000830184610445565b92915050565b600073ffffffffffffffffffffffffffffffffffffffff82169050919050565b600061049a8261046f565b9050919050565b6104aa8161048f565b82525050565b60006040820190506104c560008301856104a1565b6104d260208301846104a1565b9392505050565b6000819050919050565b6104ec816104d9565b82525050565b600067ffffffffffffffff82169050919050565b61050f816104f2565b82525050565b600061ffff82169050919050565b61052c81610515565b82525050565b600063ffffffff82169050919050565b61054b81610532565b82525050565b600060a08201905061056660008301886104e3565b6105736020830187610506565b6105806040830186610523565b61058d6060830185610542565b61059a6080830184610542565b9695505050505050565b6000815190506105b381610264565b92915050565b6000602082840312156105cf576105ce610250565b5b60006105dd848285016105a4565b9150509291505056fea26469706673582212200de51a2e3aa3f9071995cec7920569bfc7ccc6fb3727f2dc57d87fd9978265f364736f6c63430008110033","opcodes":"PUSH2 0x120 PUSH1 0x40 MSTORE CALLVALUE DUP1 ISZERO PUSH2 0x11 JUMPI PUSH1 0x0 DUP1 REVERT JUMPDEST POP PUSH1 0x40 MLOAD PUSH2 0x8C0 CODESIZE SUB DUP1 PUSH2 0x8C0 DUP4 CODECOPY DUP2 DUP2 ADD PUSH1 0x40 MSTORE DUP2 ADD SWAP1 PUSH2 0x33 SWAP2 SWAP1 PUSH2 0x1F4 JUMP JUMPDEST DUP4 DUP1 PUSH20 0xFFFFFFFFFFFFFFFFFFFFFFFFFFFFFFFFFFFFFFFF AND PUSH1 0x80 DUP2 PUSH20 0xFFFFFFFFFFFFFFFFFFFFFFFFFFFFFFFFFFFFFFFF AND DUP2 MSTORE POP POP POP DUP4 PUSH20 0xFFFFFFFFFFFFFFFFFFFFFFFFFFFFFFFFFFFFFFFF AND PUSH1 0xA0 DUP2 PUSH20 0xFFFFFFFFFFFFFFFFFFFFFFFFFFFFFFFFFFFFFFFF AND DUP2 MSTORE POP POP DUP3 PUSH1 0xC0 DUP2 DUP2 MSTORE POP POP DUP2 PUSH8 0xFFFFFFFFFFFFFFFF AND PUSH1 0xE0 DUP2 PUSH8 0xFFFFFFFFFFFFFFFF AND DUP2 MSTORE POP POP DUP1 PUSH4 0xFFFFFFFF AND PUSH2 0x100 DUP2 PUSH4 0xFFFFFFFF AND DUP2 MSTORE POP POP POP POP POP POP PUSH2 0x25B JUMP JUMPDEST PUSH1 0x0 DUP1 REVERT JUMPDEST PUSH1 0x0 PUSH20 0xFFFFFFFFFFFFFFFFFFFFFFFFFFFFFFFFFFFFFFFF DUP3 AND SWAP1 POP SWAP2 SWAP1 POP JUMP JUMPDEST PUSH1 0x0 PUSH2 0x10F DUP3 PUSH2 0xE4 JUMP JUMPDEST SWAP1 POP SWAP2 SWAP1 POP JUMP JUMPDEST PUSH2 0x11F DUP2 PUSH2 0x104 JUMP JUMPDEST DUP2 EQ PUSH2 0x12A JUMPI PUSH1 0x0 DUP1 REVERT JUMPDEST POP JUMP JUMPDEST PUSH1 0x0 DUP2 MLOAD SWAP1 POP PUSH2 0x13C DUP2 PUSH2 0x116 JUMP JUMPDEST SWAP3 SWAP2 POP POP JUMP JUMPDEST PUSH1 0x0 DUP2 SWAP1 POP SWAP2 SWAP1 POP JUMP JUMPDEST PUSH2 0x155 DUP2 PUSH2 0x142 JUMP JUMPDEST DUP2 EQ PUSH2 0x160 JUMPI PUSH1 0x0 DUP1 REVERT JUMPDEST POP JUMP JUMPDEST PUSH1 0x0 DUP2 MLOAD SWAP1 POP PUSH2 0x172 DUP2 PUSH2 0x14C JUMP JUMPDEST SWAP3 SWAP2 POP POP JUMP JUMPDEST PUSH1 0x0 PUSH8 0xFFFFFFFFFFFFFFFF DUP3 AND SWAP1 POP SWAP2 SWAP1 POP JUMP JUMPDEST PUSH2 0x195 DUP2 PUSH2 0x178 JUMP JUMPDEST DUP2 EQ PUSH2 0x1A0 JUMPI PUSH1 0x0 DUP1 REVERT JUMPDEST POP JUMP JUMPDEST PUSH1 0x0 DUP2 MLOAD SWAP1 POP PUSH2 0x1B2 DUP2 PUSH2 0x18C JUMP JUMPDEST SWAP3 SWAP2 POP POP JUMP JUMPDEST PUSH1 0x0 PUSH4 0xFFFFFFFF DUP3 AND SWAP1 POP SWAP2 SWAP1 POP JUMP JUMPDEST PUSH2 0x1D1 DUP2 PUSH2 0x1B8 JUMP JUMPDEST DUP2 EQ PUSH2 0x1DC JUMPI PUSH1 0x0 DUP1 REVERT JUMPDEST POP JUMP JUMPDEST PUSH1 0x0 DUP2 MLOAD SWAP1 POP PUSH2 0x1EE DUP2 PUSH2 0x1C8 JUMP JUMPDEST SWAP3 SWAP2 POP POP JUMP JUMPDEST PUSH1 0x0 DUP1 PUSH1 0x0 DUP1 PUSH1 0x80 DUP6 DUP8 SUB SLT ISZERO PUSH2 0x20E JUMPI PUSH2 0x20D PUSH2 0xDF JUMP JUMPDEST JUMPDEST PUSH1 0x0 PUSH2 0x21C DUP8 DUP3 DUP9 ADD PUSH2 0x12D JUMP JUMPDEST SWAP5 POP POP PUSH1 0x20 PUSH2 0x22D DUP8 DUP3 DUP9 ADD PUSH2 0x163 JUMP JUMPDEST SWAP4 POP POP PUSH1 0x40 PUSH2 0x23E DUP8 DUP3 DUP9 ADD PUSH2 0x1A3 JUMP JUMPDEST SWAP3 POP POP PUSH1 0x60 PUSH2 0x24F DUP8 DUP3 DUP9 ADD PUSH2 0x1DF JUMP JUMPDEST SWAP2 POP POP SWAP3 SWAP6 SWAP2 SWAP5 POP SWAP3 POP JUMP JUMPDEST PUSH1 0x80 MLOAD PUSH1 0xA0 MLOAD PUSH1 0xC0 MLOAD PUSH1 0xE0 MLOAD PUSH2 0x100 MLOAD PUSH2 0x61C PUSH2 0x2A4 PUSH1 0x0 CODECOPY PUSH1 0x0 PUSH2 0x1B9 ADD MSTORE PUSH1 0x0 PUSH2 0x196 ADD MSTORE PUSH1 0x0 PUSH2 0x175 ADD MSTORE PUSH1 0x0 PUSH2 0x139 ADD MSTORE PUSH1 0x0 DUP2 DUP2 PUSH1 0x77 ADD MSTORE PUSH1 0xCB ADD MSTORE PUSH2 0x61C PUSH1 0x0 RETURN INVALID PUSH1 0x80 PUSH1 0x40 MSTORE CALLVALUE DUP1 ISZERO PUSH2 0x10 JUMPI PUSH1 0x0 DUP1 REVERT JUMPDEST POP PUSH1 0x4 CALLDATASIZE LT PUSH2 0x36 JUMPI PUSH1 0x0 CALLDATALOAD PUSH1 0xE0 SHR DUP1 PUSH4 0x1FE543E3 EQ PUSH2 0x3B JUMPI DUP1 PUSH4 0xAA152491 EQ PUSH2 0x57 JUMPI JUMPDEST PUSH1 0x0 DUP1 REVERT JUMPDEST PUSH2 0x55 PUSH1 0x4 DUP1 CALLDATASIZE SUB DUP2 ADD SWAP1 PUSH2 0x50 SWAP2 SWAP1 PUSH2 0x3E9 JUMP JUMPDEST PUSH2 0x75 JUMP JUMPDEST STOP JUMPDEST PUSH2 0x5F PUSH2 0x135 JUMP JUMPDEST PUSH1 0x40 MLOAD PUSH2 0x6C SWAP2 SWAP1 PUSH2 0x454 JUMP JUMPDEST PUSH1 0x40 MLOAD DUP1 SWAP2 SUB SWAP1 RETURN JUMPDEST PUSH32 0x0 PUSH20 0xFFFFFFFFFFFFFFFFFFFFFFFFFFFFFFFFFFFFFFFF AND CALLER PUSH20 0xFFFFFFFFFFFFFFFFFFFFFFFFFFFFFFFFFFFFFFFF AND EQ PUSH2 0x127 JUMPI CALLER PUSH32 0x0 PUSH1 0x40 MLOAD PUSH32 0x1CF993F400000000000000000000000000000000000000000000000000000000 DUP2 MSTORE PUSH1 0x4 ADD PUSH2 0x11E SWAP3 SWAP2 SWAP1 PUSH2 0x4B0 JUMP JUMPDEST PUSH1 0x40 MLOAD DUP1 SWAP2 SUB SWAP1 REVERT JUMPDEST PUSH2 0x131 DUP3 DUP3 PUSH2 0x242 JUMP JUMPDEST POP POP JUMP JUMPDEST PUSH1 0x0 PUSH32 0x0 PUSH20 0xFFFFFFFFFFFFFFFFFFFFFFFFFFFFFFFFFFFFFFFF AND PUSH4 0x5D3B1D30 PUSH32 0x0 PUSH32 0x0 PUSH1 0x3 PUSH32 0x0 PUSH1 0x1 PUSH1 0x40 MLOAD DUP7 PUSH4 0xFFFFFFFF AND PUSH1 0xE0 SHL DUP2 MSTORE PUSH1 0x4 ADD PUSH2 0x1FA SWAP6 SWAP5 SWAP4 SWAP3 SWAP2 SWAP1 PUSH2 0x551 JUMP JUMPDEST PUSH1 0x20 PUSH1 0x40 MLOAD DUP1 DUP4 SUB DUP2 PUSH1 0x0 DUP8 GAS CALL ISZERO DUP1 ISZERO PUSH2 0x219 JUMPI RETURNDATASIZE PUSH1 0x0 DUP1 RETURNDATACOPY RETURNDATASIZE PUSH1 0x0 REVERT JUMPDEST POP POP POP POP PUSH1 0x40 MLOAD RETURNDATASIZE PUSH1 0x1F NOT PUSH1 0x1F DUP3 ADD AND DUP3 ADD DUP1 PUSH1 0x40 MSTORE POP DUP2 ADD SWAP1 PUSH2 0x23D SWAP2 SWAP1 PUSH2 0x5B9 JUMP JUMPDEST SWAP1 POP SWAP1 JUMP JUMPDEST POP POP JUMP JUMPDEST PUSH1 0x0 PUSH1 0x40 MLOAD SWAP1 POP SWAP1 JUMP JUMPDEST PUSH1 0x0 DUP1 REVERT JUMPDEST PUSH1 0x0 DUP1 REVERT JUMPDEST PUSH1 0x0 DUP2 SWAP1 POP SWAP2 SWAP1 POP JUMP JUMPDEST PUSH2 0x26D DUP2 PUSH2 0x25A JUMP JUMPDEST DUP2 EQ PUSH2 0x278 JUMPI PUSH1 0x0 DUP1 REVERT JUMPDEST POP JUMP JUMPDEST PUSH1 0x0 DUP2 CALLDATALOAD SWAP1 POP PUSH2 0x28A DUP2 PUSH2 0x264 JUMP JUMPDEST SWAP3 SWAP2 POP POP JUMP JUMPDEST PUSH1 0x0 DUP1 REVERT JUMPDEST PUSH1 0x0 PUSH1 0x1F NOT PUSH1 0x1F DUP4 ADD AND SWAP1 POP SWAP2 SWAP1 POP JUMP JUMPDEST PUSH32 0x4E487B7100000000000000000000000000000000000000000000000000000000 PUSH1 0x0 MSTORE PUSH1 0x41 PUSH1 0x4 MSTORE PUSH1 0x24 PUSH1 0x0 REVERT JUMPDEST PUSH2 0x2DE DUP3 PUSH2 0x295 JUMP JUMPDEST DUP2 ADD DUP2 DUP2 LT PUSH8 0xFFFFFFFFFFFFFFFF DUP3 GT OR ISZERO PUSH2 0x2FD JUMPI PUSH2 0x2FC PUSH2 0x2A6 JUMP JUMPDEST JUMPDEST DUP1 PUSH1 0x40 MSTORE POP POP POP JUMP JUMPDEST PUSH1 0x0 PUSH2 0x310 PUSH2 0x246 JUMP JUMPDEST SWAP1 POP PUSH2 0x31C DUP3 DUP3 PUSH2 0x2D5 JUMP JUMPDEST SWAP2 SWAP1 POP JUMP JUMPDEST PUSH1 0x0 PUSH8 0xFFFFFFFFFFFFFFFF DUP3 GT ISZERO PUSH2 0x33C JUMPI PUSH2 0x33B PUSH2 0x2A6 JUMP JUMPDEST JUMPDEST PUSH1 0x20 DUP3 MUL SWAP1 POP PUSH1 0x20 DUP2 ADD SWAP1 POP SWAP2 SWAP1 POP JUMP JUMPDEST PUSH1 0x0 DUP1 REVERT JUMPDEST PUSH1 0x0 PUSH2 0x365 PUSH2 0x360 DUP5 PUSH2 0x321 JUMP JUMPDEST PUSH2 0x306 JUMP JUMPDEST SWAP1 POP DUP1 DUP4 DUP3 MSTORE PUSH1 0x20 DUP3 ADD SWAP1 POP PUSH1 0x20 DUP5 MUL DUP4 ADD DUP6 DUP2 GT ISZERO PUSH2 0x388 JUMPI PUSH2 0x387 PUSH2 0x34D JUMP JUMPDEST JUMPDEST DUP4 JUMPDEST DUP2 DUP2 LT ISZERO PUSH2 0x3B1 JUMPI DUP1 PUSH2 0x39D DUP9 DUP3 PUSH2 0x27B JUMP JUMPDEST DUP5 MSTORE PUSH1 0x20 DUP5 ADD SWAP4 POP POP PUSH1 0x20 DUP2 ADD SWAP1 POP PUSH2 0x38A JUMP JUMPDEST POP POP POP SWAP4 SWAP3 POP POP POP JUMP JUMPDEST PUSH1 0x0 DUP3 PUSH1 0x1F DUP4 ADD SLT PUSH2 0x3D0 JUMPI PUSH2 0x3CF PUSH2 0x290 JUMP JUMPDEST JUMPDEST DUP2 CALLDATALOAD PUSH2 0x3E0 DUP5 DUP3 PUSH1 0x20 DUP7 ADD PUSH2 0x352 JUMP JUMPDEST SWAP2 POP POP SWAP3 SWAP2 POP POP JUMP JUMPDEST PUSH1 0x0 DUP1 PUSH1 0x40 DUP4 DUP6 SUB SLT ISZERO PUSH2 0x400 JUMPI PUSH2 0x3FF PUSH2 0x250 JUMP JUMPDEST JUMPDEST PUSH1 0x0 PUSH2 0x40E DUP6 DUP3 DUP7 ADD PUSH2 0x27B JUMP JUMPDEST SWAP3 POP POP PUSH1 0x20 DUP4 ADD CALLDATALOAD PUSH8 0xFFFFFFFFFFFFFFFF DUP2 GT ISZERO PUSH2 0x42F JUMPI PUSH2 0x42E PUSH2 0x255 JUMP JUMPDEST JUMPDEST PUSH2 0x43B DUP6 DUP3 DUP7 ADD PUSH2 0x3BB JUMP JUMPDEST SWAP2 POP POP SWAP3 POP SWAP3 SWAP1 POP JUMP JUMPDEST PUSH2 0x44E DUP2 PUSH2 0x25A JUMP JUMPDEST DUP3 MSTORE POP POP JUMP JUMPDEST PUSH1 0x0 PUSH1 0x20 DUP3 ADD SWAP1 POP PUSH2 0x469 PUSH1 0x0 DUP4 ADD DUP5 PUSH2 0x445 JUMP JUMPDEST SWAP3 SWAP2 POP POP JUMP JUMPDEST PUSH1 0x0 PUSH20 0xFFFFFFFFFFFFFFFFFFFFFFFFFFFFFFFFFFFFFFFF DUP3 AND SWAP1 POP SWAP2 SWAP1 POP JUMP JUMPDEST PUSH1 0x0 PUSH2 0x49A DUP3 PUSH2 0x46F JUMP JUMPDEST SWAP1 POP SWAP2 SWAP1 POP JUMP JUMPDEST PUSH2 0x4AA DUP2 PUSH2 0x48F JUMP JUMPDEST DUP3 MSTORE POP POP JUMP JUMPDEST PUSH1 0x0 PUSH1 0x40 DUP3 ADD SWAP1 POP PUSH2 0x4C5 PUSH1 0x0 DUP4 ADD DUP6 PUSH2 0x4A1 JUMP JUMPDEST PUSH2 0x4D2 PUSH1 0x20 DUP4 ADD DUP5 PUSH2 0x4A1 JUMP JUMPDEST SWAP4 SWAP3 POP POP POP JUMP JUMPDEST PUSH1 0x0 DUP2 SWAP1 POP SWAP2 SWAP1 POP JUMP JUMPDEST PUSH2 0x4EC DUP2 PUSH2 0x4D9 JUMP JUMPDEST DUP3 MSTORE POP POP JUMP JUMPDEST PUSH1 0x0 PUSH8 0xFFFFFFFFFFFFFFFF DUP3 AND SWAP1 POP SWAP2 SWAP1 POP JUMP JUMPDEST PUSH2 0x50F DUP2 PUSH2 0x4F2 JUMP JUMPDEST DUP3 MSTORE POP POP JUMP JUMPDEST PUSH1 0x0 PUSH2 0xFFFF DUP3 AND SWAP1 POP SWAP2 SWAP1 POP JUMP JUMPDEST PUSH2 0x52C DUP2 PUSH2 0x515 JUMP JUMPDEST DUP3 MSTORE POP POP JUMP JUMPDEST PUSH1 0x0 PUSH4 0xFFFFFFFF DUP3 AND SWAP1 POP SWAP2 SWAP1 POP JUMP JUMPDEST PUSH2 0x54B DUP2 PUSH2 0x532 JUMP JUMPDEST DUP3 MSTORE POP POP JUMP JUMPDEST PUSH1 0x0 PUSH1 0xA0 DUP3 ADD SWAP1 POP PUSH2 0x566 PUSH1 0x0 DUP4 ADD DUP9 PUSH2 0x4E3 JUMP JUMPDEST PUSH2 0x573 PUSH1 0x20 DUP4 ADD DUP8 PUSH2 0x506 JUMP JUMPDEST PUSH2 0x580 PUSH1 0x40 DUP4 ADD DUP7 PUSH2 0x523 JUMP JUMPDEST PUSH2 0x58D PUSH1 0x60 DUP4 ADD DUP6 PUSH2 0x542 JUMP JUMPDEST PUSH2 0x59A PUSH1 0x80 DUP4 ADD DUP5 PUSH2 0x542 JUMP JUMPDEST SWAP7 SWAP6 POP POP POP POP POP POP JUMP JUMPDEST PUSH1 0x0 DUP2 MLOAD SWAP1 POP PUSH2 0x5B3 DUP2 PUSH2 0x264 JUMP JUMPDEST SWAP3 SWAP2 POP POP JUMP JUMPDEST PUSH1 0x0 PUSH1 0x20 DUP3 DUP5 SUB SLT ISZERO PUSH2 0x5CF JUMPI PUSH2 0x5CE PUSH2 0x250 JUMP JUMPDEST JUMPDEST PUSH1 0x0 PUSH2 0x5DD DUP5 DUP3 DUP6 ADD PUSH2 0x5A4 JUMP JUMPDEST SWAP2 POP POP SWAP3 SWAP2 POP POP JUMP INVALID LOG2 PUSH5 0x6970667358 0x22 SLT KECCAK256 0xD 0xE5 BYTE 0x2E GASPRICE LOG3 0xF9 SMOD NOT SWAP6 0xCE 0xC7 SWAP3 SDIV PUSH10 0xBFC7CCC6FB3727F2DC57 0xD8 PUSH32 0xD9978265F364736F6C6343000811003300000000000000000000000000000000 "},"gasEstimates":{"creation":{"codeDepositCost":"312800","executionCost":"infinite","totalCost":"infinite"},"external":{"rawFulfillRandomWords(uint256,uint256[])":"infinite","requestNft()":"infinite"},"internal":{"fulfillRandomWords(uint256,uint256[] memory)":"13"}},"methodIdentifiers":{"rawFulfillRandomWords(uint256,uint256[])":"1fe543e3","requestNft()":"aa152491"}},"storageLayout":{"storage":[],"types":null},"userdoc":{"kind":"user","methods":{},"version":1}}}}