{
  "_format": "hh-sol-artifact-1",
  "contractName": "DynamicSvgNFT",
  "sourceName": "contracts/DynamicSvgNFT.sol",
  "abi": [
    {
      "inputs": [
        {
          "internalType": "address",
          "name": "_priceFeddAdd",
          "type": "address"
        },
        {
          "internalType": "string",
          "name": "_btcSvg",
          "type": "string"
        },
        {
          "internalType": "string",
          "name": "_ethSvg",
          "type": "string"
        }
      ],
      "stateMutability": "nonpayable",
      "type": "constructor"
    },
    {
      "inputs": [],
      "name": "ERC721Metadata__URI_QueryFor_NonExistentToken",
      "type": "error"
    },
    {
      "anonymous": false,
      "inputs": [
        {
          "indexed": true,
          "internalType": "address",
          "name": "owner",
          "type": "address"
        },
        {
          "indexed": true,
          "internalType": "address",
          "name": "approved",
          "type": "address"
        },
        {
          "indexed": true,
          "internalType": "uint256",
          "name": "tokenId",
          "type": "uint256"
        }
      ],
      "name": "Approval",
      "type": "event"
    },
    {
      "anonymous": false,
      "inputs": [
        {
          "indexed": true,
          "internalType": "address",
          "name": "owner",
          "type": "address"
        },
        {
          "indexed": true,
          "internalType": "address",
          "name": "operator",
          "type": "address"
        },
        {
          "indexed": false,
          "internalType": "bool",
          "name": "approved",
          "type": "bool"
        }
      ],
      "name": "ApprovalForAll",
      "type": "event"
    },
    {
      "anonymous": false,
      "inputs": [
        {
          "indexed": true,
          "internalType": "uint256",
          "name": "_tokenId",
          "type": "uint256"
        },
        {
          "indexed": true,
          "internalType": "int256",
          "name": "_highValue",
          "type": "int256"
        }
      ],
      "name": "CteateNFT",
      "type": "event"
    },
    {
      "anonymous": false,
      "inputs": [
        {
          "indexed": true,
          "internalType": "address",
          "name": "from",
          "type": "address"
        },
        {
          "indexed": true,
          "internalType": "address",
          "name": "to",
          "type": "address"
        },
        {
          "indexed": true,
          "internalType": "uint256",
          "name": "tokenId",
          "type": "uint256"
        }
      ],
      "name": "Transfer",
      "type": "event"
    },
    {
      "inputs": [
        {
          "internalType": "address",
          "name": "to",
          "type": "address"
        },
        {
          "internalType": "uint256",
          "name": "tokenId",
          "type": "uint256"
        }
      ],
      "name": "approve",
      "outputs": [],
      "stateMutability": "nonpayable",
      "type": "function"
    },
    {
      "inputs": [
        {
          "internalType": "address",
          "name": "owner",
          "type": "address"
        }
      ],
      "name": "balanceOf",
      "outputs": [
        {
          "internalType": "uint256",
          "name": "",
          "type": "uint256"
        }
      ],
      "stateMutability": "view",
      "type": "function"
    },
    {
      "inputs": [
        {
          "internalType": "uint256",
          "name": "tokenId",
          "type": "uint256"
        }
      ],
      "name": "getApproved",
      "outputs": [
        {
          "internalType": "address",
          "name": "",
          "type": "address"
        }
      ],
      "stateMutability": "view",
      "type": "function"
    },
    {
      "inputs": [],
      "name": "get_btcSvg",
      "outputs": [
        {
          "internalType": "string",
          "name": "",
          "type": "string"
        }
      ],
      "stateMutability": "view",
      "type": "function"
    },
    {
      "inputs": [],
      "name": "get_ethSvg",
      "outputs": [
        {
          "internalType": "string",
          "name": "",
          "type": "string"
        }
      ],
      "stateMutability": "view",
      "type": "function"
    },
    {
      "inputs": [],
      "name": "get_priceFeed",
      "outputs": [
        {
          "internalType": "contract AggregatorV3Interface",
          "name": "",
          "type": "address"
        }
      ],
      "stateMutability": "view",
      "type": "function"
    },
    {
      "inputs": [],
      "name": "get_tokenCounter",
      "outputs": [
        {
          "internalType": "uint256",
          "name": "",
          "type": "uint256"
        }
      ],
      "stateMutability": "view",
      "type": "function"
    },
    {
      "inputs": [
        {
          "internalType": "address",
          "name": "owner",
          "type": "address"
        },
        {
          "internalType": "address",
          "name": "operator",
          "type": "address"
        }
      ],
      "name": "isApprovedForAll",
      "outputs": [
        {
          "internalType": "bool",
          "name": "",
          "type": "bool"
        }
      ],
      "stateMutability": "view",
      "type": "function"
    },
    {
      "inputs": [
        {
          "internalType": "int256",
          "name": "_highValue",
          "type": "int256"
        }
      ],
      "name": "mintNft",
      "outputs": [],
      "stateMutability": "nonpayable",
      "type": "function"
    },
    {
      "inputs": [],
      "name": "name",
      "outputs": [
        {
          "internalType": "string",
          "name": "",
          "type": "string"
        }
      ],
      "stateMutability": "view",
      "type": "function"
    },
    {
      "inputs": [
        {
          "internalType": "uint256",
          "name": "tokenId",
          "type": "uint256"
        }
      ],
      "name": "ownerOf",
      "outputs": [
        {
          "internalType": "address",
          "name": "",
          "type": "address"
        }
      ],
      "stateMutability": "view",
      "type": "function"
    },
    {
      "inputs": [
        {
          "internalType": "address",
          "name": "from",
          "type": "address"
        },
        {
          "internalType": "address",
          "name": "to",
          "type": "address"
        },
        {
          "internalType": "uint256",
          "name": "tokenId",
          "type": "uint256"
        }
      ],
      "name": "safeTransferFrom",
      "outputs": [],
      "stateMutability": "nonpayable",
      "type": "function"
    },
    {
      "inputs": [
        {
          "internalType": "address",
          "name": "from",
          "type": "address"
        },
        {
          "internalType": "address",
          "name": "to",
          "type": "address"
        },
        {
          "internalType": "uint256",
          "name": "tokenId",
          "type": "uint256"
        },
        {
          "internalType": "bytes",
          "name": "data",
          "type": "bytes"
        }
      ],
      "name": "safeTransferFrom",
      "outputs": [],
      "stateMutability": "nonpayable",
      "type": "function"
    },
    {
      "inputs": [
        {
          "internalType": "address",
          "name": "operator",
          "type": "address"
        },
        {
          "internalType": "bool",
          "name": "approved",
          "type": "bool"
        }
      ],
      "name": "setApprovalForAll",
      "outputs": [],
      "stateMutability": "nonpayable",
      "type": "function"
    },
    {
      "inputs": [
        {
          "internalType": "bytes4",
          "name": "interfaceId",
          "type": "bytes4"
        }
      ],
      "name": "supportsInterface",
      "outputs": [
        {
          "internalType": "bool",
          "name": "",
          "type": "bool"
        }
      ],
      "stateMutability": "view",
      "type": "function"
    },
    {
      "inputs": [
        {
          "internalType": "string",
          "name": "_svg",
          "type": "string"
        }
      ],
      "name": "svgToImageURI",
      "outputs": [
        {
          "internalType": "string",
          "name": "",
          "type": "string"
        }
      ],
      "stateMutability": "pure",
      "type": "function"
    },
    {
      "inputs": [],
      "name": "symbol",
      "outputs": [
        {
          "internalType": "string",
          "name": "",
          "type": "string"
        }
      ],
      "stateMutability": "view",
      "type": "function"
    },
    {
      "inputs": [
        {
          "internalType": "uint256",
          "name": "_tokenId",
          "type": "uint256"
        }
      ],
      "name": "tokenURI",
      "outputs": [
        {
          "internalType": "string",
          "name": "",
          "type": "string"
        }
      ],
      "stateMutability": "view",
      "type": "function"
    },
    {
      "inputs": [
        {
          "internalType": "address",
          "name": "from",
          "type": "address"
        },
        {
          "internalType": "address",
          "name": "to",
          "type": "address"
        },
        {
          "internalType": "uint256",
          "name": "tokenId",
          "type": "uint256"
        }
      ],
      "name": "transferFrom",
      "outputs": [],
      "stateMutability": "nonpayable",
      "type": "function"
    }
  ],
  "bytecode": "0x60a06040523480156200001157600080fd5b5060405162003c2c38038062003c2c83398181016040528101906200003791906200057b565b6040518060400160405280600d81526020017f44796e616d69635376674e4654000000000000000000000000000000000000008152506040518060400160405280600381526020017f44534e00000000000000000000000000000000000000000000000000000000008152508160009081620000b4919062000860565b508060019081620000c6919062000860565b50505060006006819055508273ffffffffffffffffffffffffffffffffffffffff1660808173ffffffffffffffffffffffffffffffffffffffff168152505062000116826200015260201b60201c565b6007908162000126919062000860565b5062000138816200015260201b60201c565b6008908162000148919062000860565b5050505062000ae6565b606060006040518060400160405280601981526020017f646174613a696d6167652f7376672b786d6c3b6261736536340000000000000081525090506000620001c784604051602001620001a7919062000989565b604051602081830303815290604052620001f660201b62000e991760201c565b90508181604051602001620001de929190620009a2565b60405160208183030381529060405292505050919050565b606060008251036200021a576040518060200160405280600081525090506200037e565b600060405180606001604052806040815260200162003bec60409139905060006003600285516200024c9190620009f9565b62000258919062000a63565b600462000266919062000a9b565b90506000602082620002799190620009f9565b67ffffffffffffffff81111562000295576200029462000417565b5b6040519080825280601f01601f191660200182016040528015620002c85781602001600182028036833780820191505090505b509050818152600183018586518101602084015b8183101562000339576003830192508251603f8160121c168501518253600182019150603f81600c1c168501518253600182019150603f8160061c168501518253600182019150603f8116850151825360018201915050620002dc565b600389510660018114620003565760028114620003675762000372565b613d3d60f01b600283035262000372565b603d60f81b60018303525b50505050508093505050505b919050565b6000604051905090565b600080fd5b600080fd5b600073ffffffffffffffffffffffffffffffffffffffff82169050919050565b6000620003c48262000397565b9050919050565b620003d681620003b7565b8114620003e257600080fd5b50565b600081519050620003f681620003cb565b92915050565b600080fd5b600080fd5b6000601f19601f8301169050919050565b7f4e487b7100000000000000000000000000000000000000000000000000000000600052604160045260246000fd5b620004518262000406565b810181811067ffffffffffffffff8211171562000473576200047262000417565b5b80604052505050565b60006200048862000383565b905062000496828262000446565b919050565b600067ffffffffffffffff821115620004b957620004b862000417565b5b620004c48262000406565b9050602081019050919050565b60005b83811015620004f1578082015181840152602081019050620004d4565b60008484015250505050565b6000620005146200050e846200049b565b6200047c565b90508281526020810184848401111562000533576200053262000401565b5b62000540848285620004d1565b509392505050565b600082601f83011262000560576200055f620003fc565b5b815162000572848260208601620004fd565b91505092915050565b6000806000606084860312156200059757620005966200038d565b5b6000620005a786828701620003e5565b935050602084015167ffffffffffffffff811115620005cb57620005ca62000392565b5b620005d98682870162000548565b925050604084015167ffffffffffffffff811115620005fd57620005fc62000392565b5b6200060b8682870162000548565b9150509250925092565b600081519050919050565b7f4e487b7100000000000000000000000000000000000000000000000000000000600052602260045260246000fd5b600060028204905060018216806200066857607f821691505b6020821081036200067e576200067d62000620565b5b50919050565b60008190508160005260206000209050919050565b60006020601f8301049050919050565b600082821b905092915050565b600060088302620006e87fffffffffffffffffffffffffffffffffffffffffffffffffffffffffffffffff82620006a9565b620006f48683620006a9565b95508019841693508086168417925050509392505050565b6000819050919050565b6000819050919050565b6000620007416200073b62000735846200070c565b62000716565b6200070c565b9050919050565b6000819050919050565b6200075d8362000720565b620007756200076c8262000748565b848454620006b6565b825550505050565b600090565b6200078c6200077d565b6200079981848462000752565b505050565b5b81811015620007c157620007b560008262000782565b6001810190506200079f565b5050565b601f8211156200081057620007da8162000684565b620007e58462000699565b81016020851015620007f5578190505b6200080d620008048562000699565b8301826200079e565b50505b505050565b600082821c905092915050565b6000620008356000198460080262000815565b1980831691505092915050565b600062000850838362000822565b9150826002028217905092915050565b6200086b8262000615565b67ffffffffffffffff81111562000887576200088662000417565b5b6200089382546200064f565b620008a0828285620007c5565b600060209050601f831160018114620008d85760008415620008c3578287015190505b620008cf858262000842565b8655506200093f565b601f198416620008e88662000684565b60005b828110156200091257848901518255600182019150602085019450602081019050620008eb565b868310156200093257848901516200092e601f89168262000822565b8355505b6001600288020188555050505b505050505050565b600081905092915050565b60006200095f8262000615565b6200096b818562000947565b93506200097d818560208601620004d1565b80840191505092915050565b600062000997828462000952565b915081905092915050565b6000620009b0828562000952565b9150620009be828462000952565b91508190509392505050565b7f4e487b7100000000000000000000000000000000000000000000000000000000600052601160045260246000fd5b600062000a06826200070c565b915062000a13836200070c565b925082820190508082111562000a2e5762000a2d620009ca565b5b92915050565b7f4e487b7100000000000000000000000000000000000000000000000000000000600052601260045260246000fd5b600062000a70826200070c565b915062000a7d836200070c565b92508262000a905762000a8f62000a34565b5b828204905092915050565b600062000aa8826200070c565b915062000ab5836200070c565b925082820262000ac5816200070c565b9150828204841483151762000adf5762000ade620009ca565b5b5092915050565b6080516130e362000b096000396000818161054a0152610b4701526130e36000f3fe608060405234801561001057600080fd5b50600436106101215760003560e01c80636352211e116100ad578063aac7a34c11610071578063aac7a34c1461031a578063b88d4fde14610338578063c87b56dd14610354578063cd0b16fe14610384578063e985e9c5146103a257610121565b80636352211e1461026257806366ed6d981461029257806370a08231146102b057806395d89b41146102e0578063a22cb465146102fe57610121565b8063095ea7b3116100f4578063095ea7b3146101c25780631e930812146101de57806323b872dd146101fa57806330d871c61461021657806342842e0e1461024657610121565b806301ffc9a71461012657806306fdde0314610156578063075aecd414610174578063081812fc14610192575b600080fd5b610140600480360381019061013b9190611d70565b6103d2565b60405161014d9190611db8565b60405180910390f35b61015e6104b4565b60405161016b9190611e63565b60405180910390f35b61017c610546565b6040516101899190611f04565b60405180910390f35b6101ac60048036038101906101a79190611f55565b61056e565b6040516101b99190611fa3565b60405180910390f35b6101dc60048036038101906101d79190611fea565b6105b4565b005b6101f860048036038101906101f39190612060565b6106cb565b005b610214600480360381019061020f919061208d565b61070c565b005b610230600480360381019061022b9190612215565b61076c565b60405161023d9190611e63565b60405180910390f35b610260600480360381019061025b919061208d565b6107ff565b005b61027c60048036038101906102779190611f55565b61081f565b6040516102899190611fa3565b60405180910390f35b61029a6108a5565b6040516102a7919061226d565b60405180910390f35b6102ca60048036038101906102c59190612288565b6108af565b6040516102d7919061226d565b60405180910390f35b6102e8610966565b6040516102f59190611e63565b60405180910390f35b610318600480360381019061031391906122e1565b6109f8565b005b610322610a0e565b60405161032f9190611e63565b60405180910390f35b610352600480360381019061034d91906123c2565b610aa0565b005b61036e60048036038101906103699190611f55565b610b02565b60405161037b9190611e63565b60405180910390f35b61038c610d73565b6040516103999190611e63565b60405180910390f35b6103bc60048036038101906103b79190612445565b610e05565b6040516103c99190611db8565b60405180910390f35b60007f80ac58cd000000000000000000000000000000000000000000000000000000007bffffffffffffffffffffffffffffffffffffffffffffffffffffffff1916827bffffffffffffffffffffffffffffffffffffffffffffffffffffffff1916148061049d57507f5b5e139f000000000000000000000000000000000000000000000000000000007bffffffffffffffffffffffffffffffffffffffffffffffffffffffff1916827bffffffffffffffffffffffffffffffffffffffffffffffffffffffff1916145b806104ad57506104ac82611011565b5b9050919050565b6060600080546104c3906124b4565b80601f01602080910402602001604051908101604052809291908181526020018280546104ef906124b4565b801561053c5780601f106105115761010080835404028352916020019161053c565b820191906000526020600020905b81548152906001019060200180831161051f57829003601f168201915b5050505050905090565b60007f0000000000000000000000000000000000000000000000000000000000000000905090565b60006105798261107b565b6004600083815260200190815260200160002060009054906101000a900473ffffffffffffffffffffffffffffffffffffffff169050919050565b60006105bf8261081f565b90508073ffffffffffffffffffffffffffffffffffffffff168373ffffffffffffffffffffffffffffffffffffffff160361062f576040517f08c379a000000000000000000000000000000000000000000000000000000000815260040161062690612557565b60405180910390fd5b8073ffffffffffffffffffffffffffffffffffffffff1661064e6110c6565b73ffffffffffffffffffffffffffffffffffffffff16148061067d575061067c816106776110c6565b610e05565b5b6106bc576040517f08c379a00000000000000000000000000000000000000000000000000000000081526004016106b3906125e9565b60405180910390fd5b6106c683836110ce565b505050565b80600960006006548152602001908152602001600020819055506106f133600654611187565b6006600081548092919061070490612638565b919050555050565b61071d6107176110c6565b826111a5565b61075c576040517f08c379a0000000000000000000000000000000000000000000000000000000008152600401610753906126f2565b60405180910390fd5b61076783838361123a565b505050565b606060006040518060400160405280601981526020017f646174613a696d6167652f7376672b786d6c3b62617365363400000000000000815250905060006107d2846040516020016107be919061274e565b604051602081830303815290604052610e99565b905081816040516020016107e7929190612765565b60405160208183030381529060405292505050919050565b61081a83838360405180602001604052806000815250610aa0565b505050565b60008061082b83611533565b9050600073ffffffffffffffffffffffffffffffffffffffff168173ffffffffffffffffffffffffffffffffffffffff160361089c576040517f08c379a0000000000000000000000000000000000000000000000000000000008152600401610893906127d5565b60405180910390fd5b80915050919050565b6000600654905090565b60008073ffffffffffffffffffffffffffffffffffffffff168273ffffffffffffffffffffffffffffffffffffffff160361091f576040517f08c379a000000000000000000000000000000000000000000000000000000000815260040161091690612867565b60405180910390fd5b600360008373ffffffffffffffffffffffffffffffffffffffff1673ffffffffffffffffffffffffffffffffffffffff168152602001908152602001600020549050919050565b606060018054610975906124b4565b80601f01602080910402602001604051908101604052809291908181526020018280546109a1906124b4565b80156109ee5780601f106109c3576101008083540402835291602001916109ee565b820191906000526020600020905b8154815290600101906020018083116109d157829003601f168201915b5050505050905090565b610a0a610a036110c6565b8383611570565b5050565b606060078054610a1d906124b4565b80601f0160208091040260200160405190810160405280929190818152602001828054610a49906124b4565b8015610a965780601f10610a6b57610100808354040283529160200191610a96565b820191906000526020600020905b815481529060010190602001808311610a7957829003601f168201915b5050505050905090565b610ab1610aab6110c6565b836111a5565b610af0576040517f08c379a0000000000000000000000000000000000000000000000000000000008152600401610ae7906126f2565b60405180910390fd5b610afc848484846116dc565b50505050565b6060610b0d82611738565b610b43576040517f6df5edae00000000000000000000000000000000000000000000000000000000815260040160405180910390fd5b60007f000000000000000000000000000000000000000000000000000000000000000073ffffffffffffffffffffffffffffffffffffffff1663feaf968c6040518163ffffffff1660e01b815260040160a060405180830381865afa158015610bb0573d6000803e3d6000fd5b505050506040513d601f19601f82011682018060405250810190610bd491906128f3565b505050915050600060078054610be9906124b4565b80601f0160208091040260200160405190810160405280929190818152602001828054610c15906124b4565b8015610c625780601f10610c3757610100808354040283529160200191610c62565b820191906000526020600020905b815481529060010190602001808311610c4557829003601f168201915b5050505050905060096000858152602001908152602001600020548212610d115760088054610c90906124b4565b80601f0160208091040260200160405190810160405280929190818152602001828054610cbc906124b4565b8015610d095780601f10610cde57610100808354040283529160200191610d09565b820191906000526020600020905b815481529060010190602001808311610cec57829003601f168201915b505050505090505b610d19611779565b610d4a610d246104b4565b83604051602001610d36929190612b36565b604051602081830303815290604052610e99565b604051602001610d5b929190612765565b60405160208183030381529060405292505050919050565b606060088054610d82906124b4565b80601f0160208091040260200160405190810160405280929190818152602001828054610dae906124b4565b8015610dfb5780601f10610dd057610100808354040283529160200191610dfb565b820191906000526020600020905b815481529060010190602001808311610dde57829003601f168201915b5050505050905090565b6000600560008473ffffffffffffffffffffffffffffffffffffffff1673ffffffffffffffffffffffffffffffffffffffff16815260200190815260200160002060008373ffffffffffffffffffffffffffffffffffffffff1673ffffffffffffffffffffffffffffffffffffffff16815260200190815260200160002060009054906101000a900460ff16905092915050565b60606000825103610ebb5760405180602001604052806000815250905061100c565b600060405180606001604052806040815260200161306e6040913990506000600360028551610eea9190612b86565b610ef49190612be9565b6004610f009190612c1a565b90506000602082610f119190612b86565b67ffffffffffffffff811115610f2a57610f296120ea565b5b6040519080825280601f01601f191660200182016040528015610f5c5781602001600182028036833780820191505090505b509050818152600183018586518101602084015b81831015610fcb576003830192508251603f8160121c168501518253600182019150603f81600c1c168501518253600182019150603f8160061c168501518253600182019150603f8116850151825360018201915050610f70565b600389510660018114610fe55760028114610ff557611000565b613d3d60f01b6002830352611000565b603d60f81b60018303525b50505050508093505050505b919050565b60007f01ffc9a7000000000000000000000000000000000000000000000000000000007bffffffffffffffffffffffffffffffffffffffffffffffffffffffff1916827bffffffffffffffffffffffffffffffffffffffffffffffffffffffff1916149050919050565b61108481611738565b6110c3576040517f08c379a00000000000000000000000000000000000000000000000000000000081526004016110ba906127d5565b60405180910390fd5b50565b600033905090565b816004600083815260200190815260200160002060006101000a81548173ffffffffffffffffffffffffffffffffffffffff021916908373ffffffffffffffffffffffffffffffffffffffff160217905550808273ffffffffffffffffffffffffffffffffffffffff166111418361081f565b73ffffffffffffffffffffffffffffffffffffffff167f8c5be1e5ebec7d5bd14f71427d1e84f3dd0314c0f7b2291e5b200ac8c7c3b92560405160405180910390a45050565b6111a18282604051806020016040528060008152506117b6565b5050565b6000806111b18361081f565b90508073ffffffffffffffffffffffffffffffffffffffff168473ffffffffffffffffffffffffffffffffffffffff1614806111f357506111f28185610e05565b5b8061123157508373ffffffffffffffffffffffffffffffffffffffff166112198461056e565b73ffffffffffffffffffffffffffffffffffffffff16145b91505092915050565b8273ffffffffffffffffffffffffffffffffffffffff1661125a8261081f565b73ffffffffffffffffffffffffffffffffffffffff16146112b0576040517f08c379a00000000000000000000000000000000000000000000000000000000081526004016112a790612cce565b60405180910390fd5b600073ffffffffffffffffffffffffffffffffffffffff168273ffffffffffffffffffffffffffffffffffffffff160361131f576040517f08c379a000000000000000000000000000000000000000000000000000000000815260040161131690612d60565b60405180910390fd5b61132c8383836001611811565b8273ffffffffffffffffffffffffffffffffffffffff1661134c8261081f565b73ffffffffffffffffffffffffffffffffffffffff16146113a2576040517f08c379a000000000000000000000000000000000000000000000000000000000815260040161139990612cce565b60405180910390fd5b6004600082815260200190815260200160002060006101000a81549073ffffffffffffffffffffffffffffffffffffffff02191690556001600360008573ffffffffffffffffffffffffffffffffffffffff1673ffffffffffffffffffffffffffffffffffffffff168152602001908152602001600020600082825403925050819055506001600360008473ffffffffffffffffffffffffffffffffffffffff1673ffffffffffffffffffffffffffffffffffffffff16815260200190815260200160002060008282540192505081905550816002600083815260200190815260200160002060006101000a81548173ffffffffffffffffffffffffffffffffffffffff021916908373ffffffffffffffffffffffffffffffffffffffff160217905550808273ffffffffffffffffffffffffffffffffffffffff168473ffffffffffffffffffffffffffffffffffffffff167fddf252ad1be2c89b69c2b068fc378daa952ba7f163c4a11628f55a4df523b3ef60405160405180910390a461152e8383836001611937565b505050565b60006002600083815260200190815260200160002060009054906101000a900473ffffffffffffffffffffffffffffffffffffffff169050919050565b8173ffffffffffffffffffffffffffffffffffffffff168373ffffffffffffffffffffffffffffffffffffffff16036115de576040517f08c379a00000000000000000000000000000000000000000000000000000000081526004016115d590612dcc565b60405180910390fd5b80600560008573ffffffffffffffffffffffffffffffffffffffff1673ffffffffffffffffffffffffffffffffffffffff16815260200190815260200160002060008473ffffffffffffffffffffffffffffffffffffffff1673ffffffffffffffffffffffffffffffffffffffff16815260200190815260200160002060006101000a81548160ff0219169083151502179055508173ffffffffffffffffffffffffffffffffffffffff168373ffffffffffffffffffffffffffffffffffffffff167f17307eab39ab6107e8899845ad3d59bd9653f200f220920489ca2b5937696c31836040516116cf9190611db8565b60405180910390a3505050565b6116e784848461123a565b6116f38484848461193d565b611732576040517f08c379a000000000000000000000000000000000000000000000000000000000815260040161172990612e5e565b60405180910390fd5b50505050565b60008073ffffffffffffffffffffffffffffffffffffffff1661175a83611533565b73ffffffffffffffffffffffffffffffffffffffff1614159050919050565b60606040518060400160405280601d81526020017f646174613a6170706c69636174696f6e2f6a736f6e3b6261736536342c000000815250905090565b6117c08383611ac4565b6117cd600084848461193d565b61180c576040517f08c379a000000000000000000000000000000000000000000000000000000000815260040161180390612e5e565b60405180910390fd5b505050565b600181111561193157600073ffffffffffffffffffffffffffffffffffffffff168473ffffffffffffffffffffffffffffffffffffffff16146118a55780600360008673ffffffffffffffffffffffffffffffffffffffff1673ffffffffffffffffffffffffffffffffffffffff168152602001908152602001600020600082825461189d9190612e7e565b925050819055505b600073ffffffffffffffffffffffffffffffffffffffff168373ffffffffffffffffffffffffffffffffffffffff16146119305780600360008573ffffffffffffffffffffffffffffffffffffffff1673ffffffffffffffffffffffffffffffffffffffff16815260200190815260200160002060008282546119289190612b86565b925050819055505b5b50505050565b50505050565b600061195e8473ffffffffffffffffffffffffffffffffffffffff16611ce1565b15611ab7578373ffffffffffffffffffffffffffffffffffffffff1663150b7a026119876110c6565b8786866040518563ffffffff1660e01b81526004016119a99493929190612f07565b6020604051808303816000875af19250505080156119e557506040513d601f19601f820116820180604052508101906119e29190612f68565b60015b611a67573d8060008114611a15576040519150601f19603f3d011682016040523d82523d6000602084013e611a1a565b606091505b506000815103611a5f576040517f08c379a0000000000000000000000000000000000000000000000000000000008152600401611a5690612e5e565b60405180910390fd5b805181602001fd5b63150b7a0260e01b7bffffffffffffffffffffffffffffffffffffffffffffffffffffffff1916817bffffffffffffffffffffffffffffffffffffffffffffffffffffffff191614915050611abc565b600190505b949350505050565b600073ffffffffffffffffffffffffffffffffffffffff168273ffffffffffffffffffffffffffffffffffffffff1603611b33576040517f08c379a0000000000000000000000000000000000000000000000000000000008152600401611b2a90612fe1565b60405180910390fd5b611b3c81611738565b15611b7c576040517f08c379a0000000000000000000000000000000000000000000000000000000008152600401611b739061304d565b60405180910390fd5b611b8a600083836001611811565b611b9381611738565b15611bd3576040517f08c379a0000000000000000000000000000000000000000000000000000000008152600401611bca9061304d565b60405180910390fd5b6001600360008473ffffffffffffffffffffffffffffffffffffffff1673ffffffffffffffffffffffffffffffffffffffff16815260200190815260200160002060008282540192505081905550816002600083815260200190815260200160002060006101000a81548173ffffffffffffffffffffffffffffffffffffffff021916908373ffffffffffffffffffffffffffffffffffffffff160217905550808273ffffffffffffffffffffffffffffffffffffffff16600073ffffffffffffffffffffffffffffffffffffffff167fddf252ad1be2c89b69c2b068fc378daa952ba7f163c4a11628f55a4df523b3ef60405160405180910390a4611cdd600083836001611937565b5050565b6000808273ffffffffffffffffffffffffffffffffffffffff163b119050919050565b6000604051905090565b600080fd5b600080fd5b60007fffffffff0000000000000000000000000000000000000000000000000000000082169050919050565b611d4d81611d18565b8114611d5857600080fd5b50565b600081359050611d6a81611d44565b92915050565b600060208284031215611d8657611d85611d0e565b5b6000611d9484828501611d5b565b91505092915050565b60008115159050919050565b611db281611d9d565b82525050565b6000602082019050611dcd6000830184611da9565b92915050565b600081519050919050565b600082825260208201905092915050565b60005b83811015611e0d578082015181840152602081019050611df2565b60008484015250505050565b6000601f19601f8301169050919050565b6000611e3582611dd3565b611e3f8185611dde565b9350611e4f818560208601611def565b611e5881611e19565b840191505092915050565b60006020820190508181036000830152611e7d8184611e2a565b905092915050565b600073ffffffffffffffffffffffffffffffffffffffff82169050919050565b6000819050919050565b6000611eca611ec5611ec084611e85565b611ea5565b611e85565b9050919050565b6000611edc82611eaf565b9050919050565b6000611eee82611ed1565b9050919050565b611efe81611ee3565b82525050565b6000602082019050611f196000830184611ef5565b92915050565b6000819050919050565b611f3281611f1f565b8114611f3d57600080fd5b50565b600081359050611f4f81611f29565b92915050565b600060208284031215611f6b57611f6a611d0e565b5b6000611f7984828501611f40565b91505092915050565b6000611f8d82611e85565b9050919050565b611f9d81611f82565b82525050565b6000602082019050611fb86000830184611f94565b92915050565b611fc781611f82565b8114611fd257600080fd5b50565b600081359050611fe481611fbe565b92915050565b6000806040838503121561200157612000611d0e565b5b600061200f85828601611fd5565b925050602061202085828601611f40565b9150509250929050565b6000819050919050565b61203d8161202a565b811461204857600080fd5b50565b60008135905061205a81612034565b92915050565b60006020828403121561207657612075611d0e565b5b60006120848482850161204b565b91505092915050565b6000806000606084860312156120a6576120a5611d0e565b5b60006120b486828701611fd5565b93505060206120c586828701611fd5565b92505060406120d686828701611f40565b9150509250925092565b600080fd5b600080fd5b7f4e487b7100000000000000000000000000000000000000000000000000000000600052604160045260246000fd5b61212282611e19565b810181811067ffffffffffffffff82111715612141576121406120ea565b5b80604052505050565b6000612154611d04565b90506121608282612119565b919050565b600067ffffffffffffffff8211156121805761217f6120ea565b5b61218982611e19565b9050602081019050919050565b82818337600083830152505050565b60006121b86121b384612165565b61214a565b9050828152602081018484840111156121d4576121d36120e5565b5b6121df848285612196565b509392505050565b600082601f8301126121fc576121fb6120e0565b5b813561220c8482602086016121a5565b91505092915050565b60006020828403121561222b5761222a611d0e565b5b600082013567ffffffffffffffff81111561224957612248611d13565b5b612255848285016121e7565b91505092915050565b61226781611f1f565b82525050565b6000602082019050612282600083018461225e565b92915050565b60006020828403121561229e5761229d611d0e565b5b60006122ac84828501611fd5565b91505092915050565b6122be81611d9d565b81146122c957600080fd5b50565b6000813590506122db816122b5565b92915050565b600080604083850312156122f8576122f7611d0e565b5b600061230685828601611fd5565b9250506020612317858286016122cc565b9150509250929050565b600067ffffffffffffffff82111561233c5761233b6120ea565b5b61234582611e19565b9050602081019050919050565b600061236561236084612321565b61214a565b905082815260208101848484011115612381576123806120e5565b5b61238c848285612196565b509392505050565b600082601f8301126123a9576123a86120e0565b5b81356123b9848260208601612352565b91505092915050565b600080600080608085870312156123dc576123db611d0e565b5b60006123ea87828801611fd5565b94505060206123fb87828801611fd5565b935050604061240c87828801611f40565b925050606085013567ffffffffffffffff81111561242d5761242c611d13565b5b61243987828801612394565b91505092959194509250565b6000806040838503121561245c5761245b611d0e565b5b600061246a85828601611fd5565b925050602061247b85828601611fd5565b9150509250929050565b7f4e487b7100000000000000000000000000000000000000000000000000000000600052602260045260246000fd5b600060028204905060018216806124cc57607f821691505b6020821081036124df576124de612485565b5b50919050565b7f4552433732313a20617070726f76616c20746f2063757272656e74206f776e6560008201527f7200000000000000000000000000000000000000000000000000000000000000602082015250565b6000612541602183611dde565b915061254c826124e5565b604082019050919050565b6000602082019050818103600083015261257081612534565b9050919050565b7f4552433732313a20617070726f76652063616c6c6572206973206e6f7420746f60008201527f6b656e206f776e6572206f7220617070726f76656420666f7220616c6c000000602082015250565b60006125d3603d83611dde565b91506125de82612577565b604082019050919050565b60006020820190508181036000830152612602816125c6565b9050919050565b7f4e487b7100000000000000000000000000000000000000000000000000000000600052601160045260246000fd5b600061264382611f1f565b91507fffffffffffffffffffffffffffffffffffffffffffffffffffffffffffffffff820361267557612674612609565b5b600182019050919050565b7f4552433732313a2063616c6c6572206973206e6f7420746f6b656e206f776e6560008201527f72206f7220617070726f76656400000000000000000000000000000000000000602082015250565b60006126dc602d83611dde565b91506126e782612680565b604082019050919050565b6000602082019050818103600083015261270b816126cf565b9050919050565b600081905092915050565b600061272882611dd3565b6127328185612712565b9350612742818560208601611def565b80840191505092915050565b600061275a828461271d565b915081905092915050565b6000612771828561271d565b915061277d828461271d565b91508190509392505050565b7f4552433732313a20696e76616c696420746f6b656e2049440000000000000000600082015250565b60006127bf601883611dde565b91506127ca82612789565b602082019050919050565b600060208201905081810360008301526127ee816127b2565b9050919050565b7f4552433732313a2061646472657373207a65726f206973206e6f74206120766160008201527f6c6964206f776e65720000000000000000000000000000000000000000000000602082015250565b6000612851602983611dde565b915061285c826127f5565b604082019050919050565b6000602082019050818103600083015261288081612844565b9050919050565b600069ffffffffffffffffffff82169050919050565b6128a681612887565b81146128b157600080fd5b50565b6000815190506128c38161289d565b92915050565b6000815190506128d881612034565b92915050565b6000815190506128ed81611f29565b92915050565b600080600080600060a0868803121561290f5761290e611d0e565b5b600061291d888289016128b4565b955050602061292e888289016128c9565b945050604061293f888289016128de565b9350506060612950888289016128de565b9250506080612961888289016128b4565b9150509295509295909350565b7f7b226e616d65223a220000000000000000000000000000000000000000000000600082015250565b60006129a4600983612712565b91506129af8261296e565b600982019050919050565b7f222c20226465736372697074696f6e223a22416e204e4654207468617420636860008201527f616e676573206261736564206f6e2074686520436861696e6c696e6b2046656560208201527f64222c2000000000000000000000000000000000000000000000000000000000604082015250565b6000612a3c604483612712565b9150612a47826129ba565b604482019050919050565b7f2261747472696275746573223a205b7b2274726169745f74797065223a20226360008201527f6f6f6c6e657373222c202276616c7565223a203130307d5d2c2022696d61676560208201527f223a220000000000000000000000000000000000000000000000000000000000604082015250565b6000612ad4604383612712565b9150612adf82612a52565b604382019050919050565b7f227d000000000000000000000000000000000000000000000000000000000000600082015250565b6000612b20600283612712565b9150612b2b82612aea565b600282019050919050565b6000612b4182612997565b9150612b4d828561271d565b9150612b5882612a2f565b9150612b6382612ac7565b9150612b6f828461271d565b9150612b7a82612b13565b91508190509392505050565b6000612b9182611f1f565b9150612b9c83611f1f565b9250828201905080821115612bb457612bb3612609565b5b92915050565b7f4e487b7100000000000000000000000000000000000000000000000000000000600052601260045260246000fd5b6000612bf482611f1f565b9150612bff83611f1f565b925082612c0f57612c0e612bba565b5b828204905092915050565b6000612c2582611f1f565b9150612c3083611f1f565b9250828202612c3e81611f1f565b91508282048414831517612c5557612c54612609565b5b5092915050565b7f4552433732313a207472616e736665722066726f6d20696e636f72726563742060008201527f6f776e6572000000000000000000000000000000000000000000000000000000602082015250565b6000612cb8602583611dde565b9150612cc382612c5c565b604082019050919050565b60006020820190508181036000830152612ce781612cab565b9050919050565b7f4552433732313a207472616e7366657220746f20746865207a65726f2061646460008201527f7265737300000000000000000000000000000000000000000000000000000000602082015250565b6000612d4a602483611dde565b9150612d5582612cee565b604082019050919050565b60006020820190508181036000830152612d7981612d3d565b9050919050565b7f4552433732313a20617070726f766520746f2063616c6c657200000000000000600082015250565b6000612db6601983611dde565b9150612dc182612d80565b602082019050919050565b60006020820190508181036000830152612de581612da9565b9050919050565b7f4552433732313a207472616e7366657220746f206e6f6e20455243373231526560008201527f63656976657220696d706c656d656e7465720000000000000000000000000000602082015250565b6000612e48603283611dde565b9150612e5382612dec565b604082019050919050565b60006020820190508181036000830152612e7781612e3b565b9050919050565b6000612e8982611f1f565b9150612e9483611f1f565b9250828203905081811115612eac57612eab612609565b5b92915050565b600081519050919050565b600082825260208201905092915050565b6000612ed982612eb2565b612ee38185612ebd565b9350612ef3818560208601611def565b612efc81611e19565b840191505092915050565b6000608082019050612f1c6000830187611f94565b612f296020830186611f94565b612f36604083018561225e565b8181036060830152612f488184612ece565b905095945050505050565b600081519050612f6281611d44565b92915050565b600060208284031215612f7e57612f7d611d0e565b5b6000612f8c84828501612f53565b91505092915050565b7f4552433732313a206d696e7420746f20746865207a65726f2061646472657373600082015250565b6000612fcb602083611dde565b9150612fd682612f95565b602082019050919050565b60006020820190508181036000830152612ffa81612fbe565b9050919050565b7f4552433732313a20746f6b656e20616c7265616479206d696e74656400000000600082015250565b6000613037601c83611dde565b915061304282613001565b602082019050919050565b600060208201905081810360008301526130668161302a565b905091905056fe4142434445464748494a4b4c4d4e4f505152535455565758595a6162636465666768696a6b6c6d6e6f707172737475767778797a303132333435363738392b2fa26469706673582212204615f24998a1e9238ed4b5a99813864c5ab22f1a9d777b86eef6f32d61615e9e64736f6c634300081100334142434445464748494a4b4c4d4e4f505152535455565758595a6162636465666768696a6b6c6d6e6f707172737475767778797a303132333435363738392b2f",
  "linkReferences": {},
  "deployedLinkReferences": {}
}