{
  "_format": "hh-sol-artifact-1",
  "contractName": "RandomIpfsNFT",
  "sourceName": "contracts/RandomIpfsNFT.sol",
  "abi": [
    {
      "inputs": [
        {
          "internalType": "address",
          "name": "_VRFCoordinator",
          "type": "address"
        },
        {
          "internalType": "bytes32",
          "name": "_gasLane",
          "type": "bytes32"
        },
        {
          "internalType": "uint64",
          "name": "_subscriptionId",
          "type": "uint64"
        },
        {
          "internalType": "uint32",
          "name": "_callbackGasLimit",
          "type": "uint32"
        },
        {
          "internalType": "string[3]",
          "name": "_dogTokenURIs",
          "type": "string[3]"
        },
        {
          "internalType": "uint256",
          "name": "_mintFee",
          "type": "uint256"
        }
      ],
      "stateMutability": "nonpayable",
      "type": "constructor"
    },
    {
      "inputs": [
        {
          "internalType": "address",
          "name": "have",
          "type": "address"
        },
        {
          "internalType": "address",
          "name": "want",
          "type": "address"
        }
      ],
      "name": "OnlyCoordinatorCanFulfill",
      "type": "error"
    },
    {
      "inputs": [],
      "name": "RandomIpfsNFT__MintFee_sendMoreETH",
      "type": "error"
    },
    {
      "inputs": [],
      "name": "RandomIpfsNFT__OutOfRange",
      "type": "error"
    },
    {
      "inputs": [],
      "name": "RandomIpfsNFT__TransactionFailed",
      "type": "error"
    },
    {
      "inputs": [],
      "name": "RandomIpfsNft__AlreadyInitialized",
      "type": "error"
    },
    {
      "anonymous": false,
      "inputs": [
        {
          "indexed": true,
          "internalType": "address",
          "name": "owner",
          "type": "address"
        },
        {
          "indexed": true,
          "internalType": "address",
          "name": "approved",
          "type": "address"
        },
        {
          "indexed": true,
          "internalType": "uint256",
          "name": "tokenId",
          "type": "uint256"
        }
      ],
      "name": "Approval",
      "type": "event"
    },
    {
      "anonymous": false,
      "inputs": [
        {
          "indexed": true,
          "internalType": "address",
          "name": "owner",
          "type": "address"
        },
        {
          "indexed": true,
          "internalType": "address",
          "name": "operator",
          "type": "address"
        },
        {
          "indexed": false,
          "internalType": "bool",
          "name": "approved",
          "type": "bool"
        }
      ],
      "name": "ApprovalForAll",
      "type": "event"
    },
    {
      "anonymous": false,
      "inputs": [
        {
          "indexed": true,
          "internalType": "address",
          "name": "previousOwner",
          "type": "address"
        },
        {
          "indexed": true,
          "internalType": "address",
          "name": "newOwner",
          "type": "address"
        }
      ],
      "name": "OwnershipTransferred",
      "type": "event"
    },
    {
      "anonymous": false,
      "inputs": [
        {
          "indexed": true,
          "internalType": "address",
          "name": "from",
          "type": "address"
        },
        {
          "indexed": true,
          "internalType": "address",
          "name": "to",
          "type": "address"
        },
        {
          "indexed": true,
          "internalType": "uint256",
          "name": "tokenId",
          "type": "uint256"
        }
      ],
      "name": "Transfer",
      "type": "event"
    },
    {
      "anonymous": false,
      "inputs": [
        {
          "indexed": false,
          "internalType": "enum RandomIpfsNFT.Breed",
          "name": "_degBreed",
          "type": "uint8"
        },
        {
          "indexed": false,
          "internalType": "address",
          "name": "_minter",
          "type": "address"
        }
      ],
      "name": "nftMinted",
      "type": "event"
    },
    {
      "anonymous": false,
      "inputs": [
        {
          "indexed": true,
          "internalType": "uint256",
          "name": "_requestId",
          "type": "uint256"
        },
        {
          "indexed": false,
          "internalType": "address",
          "name": "_requester",
          "type": "address"
        }
      ],
      "name": "nftRequested",
      "type": "event"
    },
    {
      "inputs": [
        {
          "internalType": "address",
          "name": "to",
          "type": "address"
        },
        {
          "internalType": "uint256",
          "name": "tokenId",
          "type": "uint256"
        }
      ],
      "name": "approve",
      "outputs": [],
      "stateMutability": "nonpayable",
      "type": "function"
    },
    {
      "inputs": [
        {
          "internalType": "address",
          "name": "owner",
          "type": "address"
        }
      ],
      "name": "balanceOf",
      "outputs": [
        {
          "internalType": "uint256",
          "name": "",
          "type": "uint256"
        }
      ],
      "stateMutability": "view",
      "type": "function"
    },
    {
      "inputs": [
        {
          "internalType": "uint256",
          "name": "tokenId",
          "type": "uint256"
        }
      ],
      "name": "getApproved",
      "outputs": [
        {
          "internalType": "address",
          "name": "",
          "type": "address"
        }
      ],
      "stateMutability": "view",
      "type": "function"
    },
    {
      "inputs": [
        {
          "internalType": "uint256",
          "name": "_moddedRNG",
          "type": "uint256"
        }
      ],
      "name": "getBreedFromModdedRNG",
      "outputs": [
        {
          "internalType": "enum RandomIpfsNFT.Breed",
          "name": "dogBreed",
          "type": "uint8"
        }
      ],
      "stateMutability": "pure",
      "type": "function"
    },
    {
      "inputs": [],
      "name": "getChanceArray",
      "outputs": [
        {
          "internalType": "uint256[3]",
          "name": "",
          "type": "uint256[3]"
        }
      ],
      "stateMutability": "pure",
      "type": "function"
    },
    {
      "inputs": [
        {
          "internalType": "uint256",
          "name": "_index",
          "type": "uint256"
        }
      ],
      "name": "get_dogTokenURIs",
      "outputs": [
        {
          "internalType": "string",
          "name": "",
          "type": "string"
        }
      ],
      "stateMutability": "view",
      "type": "function"
    },
    {
      "inputs": [],
      "name": "get_initialized",
      "outputs": [
        {
          "internalType": "bool",
          "name": "",
          "type": "bool"
        }
      ],
      "stateMutability": "view",
      "type": "function"
    },
    {
      "inputs": [],
      "name": "get_mintFee",
      "outputs": [
        {
          "internalType": "uint256",
          "name": "",
          "type": "uint256"
        }
      ],
      "stateMutability": "view",
      "type": "function"
    },
    {
      "inputs": [
        {
          "internalType": "uint256",
          "name": "_reqId",
          "type": "uint256"
        }
      ],
      "name": "get_requestIdToOwner",
      "outputs": [
        {
          "internalType": "address",
          "name": "",
          "type": "address"
        }
      ],
      "stateMutability": "view",
      "type": "function"
    },
    {
      "inputs": [],
      "name": "get_tokenCounterId",
      "outputs": [
        {
          "internalType": "uint256",
          "name": "",
          "type": "uint256"
        }
      ],
      "stateMutability": "view",
      "type": "function"
    },
    {
      "inputs": [
        {
          "internalType": "address",
          "name": "owner",
          "type": "address"
        },
        {
          "internalType": "address",
          "name": "operator",
          "type": "address"
        }
      ],
      "name": "isApprovedForAll",
      "outputs": [
        {
          "internalType": "bool",
          "name": "",
          "type": "bool"
        }
      ],
      "stateMutability": "view",
      "type": "function"
    },
    {
      "inputs": [],
      "name": "name",
      "outputs": [
        {
          "internalType": "string",
          "name": "",
          "type": "string"
        }
      ],
      "stateMutability": "view",
      "type": "function"
    },
    {
      "inputs": [],
      "name": "owner",
      "outputs": [
        {
          "internalType": "address",
          "name": "",
          "type": "address"
        }
      ],
      "stateMutability": "view",
      "type": "function"
    },
    {
      "inputs": [
        {
          "internalType": "uint256",
          "name": "tokenId",
          "type": "uint256"
        }
      ],
      "name": "ownerOf",
      "outputs": [
        {
          "internalType": "address",
          "name": "",
          "type": "address"
        }
      ],
      "stateMutability": "view",
      "type": "function"
    },
    {
      "inputs": [
        {
          "internalType": "uint256",
          "name": "requestId",
          "type": "uint256"
        },
        {
          "internalType": "uint256[]",
          "name": "randomWords",
          "type": "uint256[]"
        }
      ],
      "name": "rawFulfillRandomWords",
      "outputs": [],
      "stateMutability": "nonpayable",
      "type": "function"
    },
    {
      "inputs": [],
      "name": "renounceOwnership",
      "outputs": [],
      "stateMutability": "nonpayable",
      "type": "function"
    },
    {
      "inputs": [],
      "name": "requestNft",
      "outputs": [
        {
          "internalType": "uint256",
          "name": "requestId",
          "type": "uint256"
        }
      ],
      "stateMutability": "payable",
      "type": "function"
    },
    {
      "inputs": [
        {
          "internalType": "address",
          "name": "from",
          "type": "address"
        },
        {
          "internalType": "address",
          "name": "to",
          "type": "address"
        },
        {
          "internalType": "uint256",
          "name": "tokenId",
          "type": "uint256"
        }
      ],
      "name": "safeTransferFrom",
      "outputs": [],
      "stateMutability": "nonpayable",
      "type": "function"
    },
    {
      "inputs": [
        {
          "internalType": "address",
          "name": "from",
          "type": "address"
        },
        {
          "internalType": "address",
          "name": "to",
          "type": "address"
        },
        {
          "internalType": "uint256",
          "name": "tokenId",
          "type": "uint256"
        },
        {
          "internalType": "bytes",
          "name": "data",
          "type": "bytes"
        }
      ],
      "name": "safeTransferFrom",
      "outputs": [],
      "stateMutability": "nonpayable",
      "type": "function"
    },
    {
      "inputs": [
        {
          "internalType": "address",
          "name": "operator",
          "type": "address"
        },
        {
          "internalType": "bool",
          "name": "approved",
          "type": "bool"
        }
      ],
      "name": "setApprovalForAll",
      "outputs": [],
      "stateMutability": "nonpayable",
      "type": "function"
    },
    {
      "inputs": [
        {
          "internalType": "bytes4",
          "name": "interfaceId",
          "type": "bytes4"
        }
      ],
      "name": "supportsInterface",
      "outputs": [
        {
          "internalType": "bool",
          "name": "",
          "type": "bool"
        }
      ],
      "stateMutability": "view",
      "type": "function"
    },
    {
      "inputs": [],
      "name": "symbol",
      "outputs": [
        {
          "internalType": "string",
          "name": "",
          "type": "string"
        }
      ],
      "stateMutability": "view",
      "type": "function"
    },
    {
      "inputs": [
        {
          "internalType": "uint256",
          "name": "tokenId",
          "type": "uint256"
        }
      ],
      "name": "tokenURI",
      "outputs": [
        {
          "internalType": "string",
          "name": "",
          "type": "string"
        }
      ],
      "stateMutability": "view",
      "type": "function"
    },
    {
      "inputs": [
        {
          "internalType": "address",
          "name": "from",
          "type": "address"
        },
        {
          "internalType": "address",
          "name": "to",
          "type": "address"
        },
        {
          "internalType": "uint256",
          "name": "tokenId",
          "type": "uint256"
        }
      ],
      "name": "transferFrom",
      "outputs": [],
      "stateMutability": "nonpayable",
      "type": "function"
    },
    {
      "inputs": [
        {
          "internalType": "address",
          "name": "newOwner",
          "type": "address"
        }
      ],
      "name": "transferOwnership",
      "outputs": [],
      "stateMutability": "nonpayable",
      "type": "function"
    },
    {
      "inputs": [],
      "name": "withdraw",
      "outputs": [],
      "stateMutability": "payable",
      "type": "function"
    }
  ],
  "bytecode": "0x6101406040523480156200001257600080fd5b5060405162004990380380620049908339818101604052810190620000389190620007da565b6040518060400160405280600d81526020017f72616e646f6d497066734e6674000000000000000000000000000000000000008152506040518060400160405280600381526020017f52494e0000000000000000000000000000000000000000000000000000000000815250878073ffffffffffffffffffffffffffffffffffffffff1660808173ffffffffffffffffffffffffffffffffffffffff1681525050508160009081620000eb919062000ad6565b508060019081620000fd919062000ad6565b5050506200012062000114620001c760201b60201c565b620001cf60201b60201c565b8573ffffffffffffffffffffffffffffffffffffffff1660c08173ffffffffffffffffffffffffffffffffffffffff16815250508460e081815250508367ffffffffffffffff166101008167ffffffffffffffff16815250508263ffffffff166101208163ffffffff1681525050816009906003620001a19291906200030f565b508060a08181525050620001bb826200029560201b60201c565b50505050505062000bbd565b600033905090565b6000600760009054906101000a900473ffffffffffffffffffffffffffffffffffffffff16905081600760006101000a81548173ffffffffffffffffffffffffffffffffffffffff021916908373ffffffffffffffffffffffffffffffffffffffff1602179055508173ffffffffffffffffffffffffffffffffffffffff168173ffffffffffffffffffffffffffffffffffffffff167f8be0079c531659141344cd1fd0a4f28419497f9722a3daafe3b4186f6b6457e060405160405180910390a35050565b600a60009054906101000a900460ff1615620002dd576040517fddf8bf7000000000000000000000000000000000000000000000000000000000815260040160405180910390fd5b806009906003620002f09291906200030f565b506001600a60006101000a81548160ff02191690831515021790555050565b8280548282559060005260206000209081019282156200035c579160200282015b828111156200035b5782518290816200034a919062000ad6565b509160200191906001019062000330565b5b5090506200036b91906200036f565b5090565b5b8082111562000393576000818162000389919062000397565b5060010162000370565b5090565b508054620003a590620008cf565b6000825580601f10620003b95750620003da565b601f016020900490600052602060002090810190620003d99190620003dd565b5b50565b5b80821115620003f8576000816000905550600101620003de565b5090565b6000604051905090565b600080fd5b600080fd5b600073ffffffffffffffffffffffffffffffffffffffff82169050919050565b60006200043d8262000410565b9050919050565b6200044f8162000430565b81146200045b57600080fd5b50565b6000815190506200046f8162000444565b92915050565b6000819050919050565b6200048a8162000475565b81146200049657600080fd5b50565b600081519050620004aa816200047f565b92915050565b600067ffffffffffffffff82169050919050565b620004cf81620004b0565b8114620004db57600080fd5b50565b600081519050620004ef81620004c4565b92915050565b600063ffffffff82169050919050565b6200051081620004f5565b81146200051c57600080fd5b50565b600081519050620005308162000505565b92915050565b600080fd5b6000601f19601f8301169050919050565b7f4e487b7100000000000000000000000000000000000000000000000000000000600052604160045260246000fd5b62000586826200053b565b810181811067ffffffffffffffff82111715620005a857620005a76200054c565b5b80604052505050565b6000620005bd620003fc565b9050620005cb82826200057b565b919050565b600067ffffffffffffffff821115620005ee57620005ed6200054c565b5b602082029050919050565b600080fd5b600080fd5b600067ffffffffffffffff8211156200062157620006206200054c565b5b6200062c826200053b565b9050602081019050919050565b60005b83811015620006595780820151818401526020810190506200063c565b60008484015250505050565b60006200067c620006768462000603565b620005b1565b9050828152602081018484840111156200069b576200069a620005fe565b5b620006a884828562000639565b509392505050565b600082601f830112620006c857620006c762000536565b5b8151620006da84826020860162000665565b91505092915050565b6000620006fa620006f484620005d0565b620005b1565b90508060208402830185811115620007175762000716620005f9565b5b835b818110156200076557805167ffffffffffffffff81111562000740576200073f62000536565b5b8086016200074f8982620006b0565b8552602085019450505060208101905062000719565b5050509392505050565b600082601f83011262000787576200078662000536565b5b600362000796848285620006e3565b91505092915050565b6000819050919050565b620007b4816200079f565b8114620007c057600080fd5b50565b600081519050620007d481620007a9565b92915050565b60008060008060008060c08789031215620007fa57620007f962000406565b5b60006200080a89828a016200045e565b96505060206200081d89828a0162000499565b95505060406200083089828a01620004de565b94505060606200084389828a016200051f565b935050608087015167ffffffffffffffff8111156200086757620008666200040b565b5b6200087589828a016200076f565b92505060a06200088889828a01620007c3565b9150509295509295509295565b600081519050919050565b7f4e487b7100000000000000000000000000000000000000000000000000000000600052602260045260246000fd5b60006002820490506001821680620008e857607f821691505b602082108103620008fe57620008fd620008a0565b5b50919050565b60008190508160005260206000209050919050565b60006020601f8301049050919050565b600082821b905092915050565b600060088302620009687fffffffffffffffffffffffffffffffffffffffffffffffffffffffffffffffff8262000929565b62000974868362000929565b95508019841693508086168417925050509392505050565b6000819050919050565b6000620009b7620009b1620009ab846200079f565b6200098c565b6200079f565b9050919050565b6000819050919050565b620009d38362000996565b620009eb620009e282620009be565b84845462000936565b825550505050565b600090565b62000a02620009f3565b62000a0f818484620009c8565b505050565b5b8181101562000a375762000a2b600082620009f8565b60018101905062000a15565b5050565b601f82111562000a865762000a508162000904565b62000a5b8462000919565b8101602085101562000a6b578190505b62000a8362000a7a8562000919565b83018262000a14565b50505b505050565b600082821c905092915050565b600062000aab6000198460080262000a8b565b1980831691505092915050565b600062000ac6838362000a98565b9150826002028217905092915050565b62000ae18262000895565b67ffffffffffffffff81111562000afd5762000afc6200054c565b5b62000b098254620008cf565b62000b1682828562000a3b565b600060209050601f83116001811462000b4e576000841562000b39578287015190505b62000b45858262000ab8565b86555062000bb5565b601f19841662000b5e8662000904565b60005b8281101562000b885784890151825560018201915060208501945060208101905062000b61565b8683101562000ba8578489015162000ba4601f89168262000a98565b8355505b6001600288020188555050505b505050505050565b60805160a05160c05160e0516101005161012051613d7562000c1b6000396000611044015260006110210152600061100001526000610fc401526000818161090b0152610f6a01526000818161093101526109850152613d756000f3fe6080604052600436106101815760003560e01c8063715018a6116100d1578063a47044451161008a578063c87b56dd11610064578063c87b56dd14610568578063e985e9c5146105a5578063ebe5122f146105e2578063f2fde38b1461060d57610181565b8063a4704445146104e4578063aa15249114610521578063b88d4fde1461053f57610181565b8063715018a6146103e65780637164a4d8146103fd57806388830657146104285780638da5cb5b1461046557806395d89b4114610490578063a22cb465146104bb57610181565b806323b872dd1161013e57806342842e0e1161011857806342842e0e146103185780635dacf5f4146103415780636352211e1461036c57806370a08231146103a957610181565b806323b872dd146102a85780633b82170c146102d15780633ccfd60b1461030e57610181565b806301ffc9a71461018657806306fdde03146101c3578063081812fc146101ee578063095ea7b31461022b5780630e800335146102545780631fe543e31461027f575b600080fd5b34801561019257600080fd5b506101ad60048036038101906101a89190612721565b610636565b6040516101ba9190612769565b60405180910390f35b3480156101cf57600080fd5b506101d8610718565b6040516101e59190612814565b60405180910390f35b3480156101fa57600080fd5b506102156004803603810190610210919061286c565b6107aa565b60405161022291906128da565b60405180910390f35b34801561023757600080fd5b50610252600480360381019061024d9190612921565b6107f0565b005b34801561026057600080fd5b50610269610907565b6040516102769190612970565b60405180910390f35b34801561028b57600080fd5b506102a660048036038101906102a19190612ad3565b61092f565b005b3480156102b457600080fd5b506102cf60048036038101906102ca9190612b2f565b6109ef565b005b3480156102dd57600080fd5b506102f860048036038101906102f3919061286c565b610a4f565b6040516103059190612bf9565b60405180910390f35b610316610b40565b005b34801561032457600080fd5b5061033f600480360381019061033a9190612b2f565b610bf4565b005b34801561034d57600080fd5b50610356610c14565b6040516103639190612cbf565b60405180910390f35b34801561037857600080fd5b50610393600480360381019061038e919061286c565b610c3f565b6040516103a091906128da565b60405180910390f35b3480156103b557600080fd5b506103d060048036038101906103cb9190612cda565b610cc5565b6040516103dd9190612970565b60405180910390f35b3480156103f257600080fd5b506103fb610d7c565b005b34801561040957600080fd5b50610412610d90565b60405161041f9190612769565b60405180910390f35b34801561043457600080fd5b5061044f600480360381019061044a919061286c565b610da7565b60405161045c91906128da565b60405180910390f35b34801561047157600080fd5b5061047a610de4565b60405161048791906128da565b60405180910390f35b34801561049c57600080fd5b506104a5610e0e565b6040516104b29190612814565b60405180910390f35b3480156104c757600080fd5b506104e260048036038101906104dd9190612d33565b610ea0565b005b3480156104f057600080fd5b5061050b6004803603810190610506919061286c565b610eb6565b6040516105189190612814565b60405180910390f35b610529610f66565b6040516105369190612970565b60405180910390f35b34801561054b57600080fd5b5061056660048036038101906105619190612e28565b611157565b005b34801561057457600080fd5b5061058f600480360381019061058a919061286c565b6111b9565b60405161059c9190612814565b60405180910390f35b3480156105b157600080fd5b506105cc60048036038101906105c79190612eab565b6112cb565b6040516105d99190612769565b60405180910390f35b3480156105ee57600080fd5b506105f761135f565b6040516106049190612970565b60405180910390f35b34801561061957600080fd5b50610634600480360381019061062f9190612cda565b611369565b005b60007f80ac58cd000000000000000000000000000000000000000000000000000000007bffffffffffffffffffffffffffffffffffffffffffffffffffffffff1916827bffffffffffffffffffffffffffffffffffffffffffffffffffffffff1916148061070157507f5b5e139f000000000000000000000000000000000000000000000000000000007bffffffffffffffffffffffffffffffffffffffffffffffffffffffff1916827bffffffffffffffffffffffffffffffffffffffffffffffffffffffff1916145b806107115750610710826113ec565b5b9050919050565b60606000805461072790612f1a565b80601f016020809104026020016040519081016040528092919081815260200182805461075390612f1a565b80156107a05780601f10610775576101008083540402835291602001916107a0565b820191906000526020600020905b81548152906001019060200180831161078357829003601f168201915b5050505050905090565b60006107b582611456565b6004600083815260200190815260200160002060009054906101000a900473ffffffffffffffffffffffffffffffffffffffff169050919050565b60006107fb82610c3f565b90508073ffffffffffffffffffffffffffffffffffffffff168373ffffffffffffffffffffffffffffffffffffffff160361086b576040517f08c379a000000000000000000000000000000000000000000000000000000000815260040161086290612fbd565b60405180910390fd5b8073ffffffffffffffffffffffffffffffffffffffff1661088a6114a1565b73ffffffffffffffffffffffffffffffffffffffff1614806108b957506108b8816108b36114a1565b6112cb565b5b6108f8576040517f08c379a00000000000000000000000000000000000000000000000000000000081526004016108ef9061304f565b60405180910390fd5b61090283836114a9565b505050565b60007f0000000000000000000000000000000000000000000000000000000000000000905090565b7f000000000000000000000000000000000000000000000000000000000000000073ffffffffffffffffffffffffffffffffffffffff163373ffffffffffffffffffffffffffffffffffffffff16146109e157337f00000000000000000000000000000000000000000000000000000000000000006040517f1cf993f40000000000000000000000000000000000000000000000000000000081526004016109d892919061306f565b60405180910390fd5b6109eb8282611562565b5050565b610a006109fa6114a1565b82611702565b610a3f576040517f08c379a0000000000000000000000000000000000000000000000000000000008152600401610a369061310a565b60405180910390fd5b610a4a838383611797565b505050565b600080600090506000610a60610c14565b905060005b60038161ffff161015610b08578285118015610aa65750818161ffff1660038110610a9357610a9261312a565b5b602002015183610aa39190613188565b85105b15610acc578061ffff166002811115610ac257610ac1612b82565b5b9350505050610b3b565b818161ffff1660038110610ae357610ae261312a565b5b602002015183610af39190613188565b92508080610b00906131ca565b915050610a65565b506040517fd795bb3400000000000000000000000000000000000000000000000000000000815260040160405180910390fd5b919050565b610b48611a90565b600047905060003373ffffffffffffffffffffffffffffffffffffffff1682604051610b7390613225565b60006040518083038185875af1925050503d8060008114610bb0576040519150601f19603f3d011682016040523d82523d6000602084013e610bb5565b606091505b5050905080610bf0576040517f5f19950e00000000000000000000000000000000000000000000000000000000815260040160405180910390fd5b5050565b610c0f83838360405180602001604052806000815250611157565b505050565b610c1c612693565b6040518060600160405280600a8152602001601e81526020016064815250905090565b600080610c4b83611b0e565b9050600073ffffffffffffffffffffffffffffffffffffffff168173ffffffffffffffffffffffffffffffffffffffff1603610cbc576040517f08c379a0000000000000000000000000000000000000000000000000000000008152600401610cb390613286565b60405180910390fd5b80915050919050565b60008073ffffffffffffffffffffffffffffffffffffffff168273ffffffffffffffffffffffffffffffffffffffff1603610d35576040517f08c379a0000000000000000000000000000000000000000000000000000000008152600401610d2c90613318565b60405180910390fd5b600360008373ffffffffffffffffffffffffffffffffffffffff1673ffffffffffffffffffffffffffffffffffffffff168152602001908152602001600020549050919050565b610d84611a90565b610d8e6000611b4b565b565b6000600a60009054906101000a900460ff16905090565b6000600b600083815260200190815260200160002060009054906101000a900473ffffffffffffffffffffffffffffffffffffffff169050919050565b6000600760009054906101000a900473ffffffffffffffffffffffffffffffffffffffff16905090565b606060018054610e1d90612f1a565b80601f0160208091040260200160405190810160405280929190818152602001828054610e4990612f1a565b8015610e965780601f10610e6b57610100808354040283529160200191610e96565b820191906000526020600020905b815481529060010190602001808311610e7957829003601f168201915b5050505050905090565b610eb2610eab6114a1565b8383611c11565b5050565b606060098281548110610ecc57610ecb61312a565b5b906000526020600020018054610ee190612f1a565b80601f0160208091040260200160405190810160405280929190818152602001828054610f0d90612f1a565b8015610f5a5780601f10610f2f57610100808354040283529160200191610f5a565b820191906000526020600020905b815481529060010190602001808311610f3d57829003601f168201915b50505050509050919050565b60007f0000000000000000000000000000000000000000000000000000000000000000341015610fc2576040517f5c22aa8100000000000000000000000000000000000000000000000000000000815260040160405180910390fd5b7f000000000000000000000000000000000000000000000000000000000000000073ffffffffffffffffffffffffffffffffffffffff16635d3b1d307f00000000000000000000000000000000000000000000000000000000000000007f000000000000000000000000000000000000000000000000000000000000000060037f000000000000000000000000000000000000000000000000000000000000000060016040518663ffffffff1660e01b81526004016110859594939291906133a2565b6020604051808303816000875af11580156110a4573d6000803e3d6000fd5b505050506040513d601f19601f820116820180604052508101906110c8919061340a565b905033600b600083815260200190815260200160002060006101000a81548173ffffffffffffffffffffffffffffffffffffffff021916908373ffffffffffffffffffffffffffffffffffffffff160217905550807fb77d492ca16c0fc7e1a62736b735a9b86bf20f020e61e4be967843f7b36d8b013360405161114c91906128da565b60405180910390a290565b6111686111626114a1565b83611702565b6111a7576040517f08c379a000000000000000000000000000000000000000000000000000000000815260040161119e9061310a565b60405180910390fd5b6111b384848484611d7d565b50505050565b60606111c482611456565b60006006600084815260200190815260200160002080546111e490612f1a565b80601f016020809104026020016040519081016040528092919081815260200182805461121090612f1a565b801561125d5780601f106112325761010080835404028352916020019161125d565b820191906000526020600020905b81548152906001019060200180831161124057829003601f168201915b50505050509050600061126e611dd9565b905060008151036112835781925050506112c6565b6000825111156112b85780826040516020016112a0929190613473565b604051602081830303815290604052925050506112c6565b6112c184611df0565b925050505b919050565b6000600560008473ffffffffffffffffffffffffffffffffffffffff1673ffffffffffffffffffffffffffffffffffffffff16815260200190815260200160002060008373ffffffffffffffffffffffffffffffffffffffff1673ffffffffffffffffffffffffffffffffffffffff16815260200190815260200160002060009054906101000a900460ff16905092915050565b6000600854905090565b611371611a90565b600073ffffffffffffffffffffffffffffffffffffffff168173ffffffffffffffffffffffffffffffffffffffff16036113e0576040517f08c379a00000000000000000000000000000000000000000000000000000000081526004016113d790613509565b60405180910390fd5b6113e981611b4b565b50565b60007f01ffc9a7000000000000000000000000000000000000000000000000000000007bffffffffffffffffffffffffffffffffffffffffffffffffffffffff1916827bffffffffffffffffffffffffffffffffffffffffffffffffffffffff1916149050919050565b61145f81611e58565b61149e576040517f08c379a000000000000000000000000000000000000000000000000000000000815260040161149590613286565b60405180910390fd5b50565b600033905090565b816004600083815260200190815260200160002060006101000a81548173ffffffffffffffffffffffffffffffffffffffff021916908373ffffffffffffffffffffffffffffffffffffffff160217905550808273ffffffffffffffffffffffffffffffffffffffff1661151c83610c3f565b73ffffffffffffffffffffffffffffffffffffffff167f8c5be1e5ebec7d5bd14f71427d1e84f3dd0314c0f7b2291e5b200ac8c7c3b92560405160405180910390a45050565b6000600b600084815260200190815260200160002060009054906101000a900473ffffffffffffffffffffffffffffffffffffffff1690506000600854905060006064846000815181106115b9576115b861312a565b5b60200260200101516115cb9190613558565b905060006115d882610a4f565b9050600854600860008282546115ee9190613188565b925050819055506115ff8484611e99565b6116c183600983600281111561161857611617612b82565b5b815481106116295761162861312a565b5b90600052602060002001805461163e90612f1a565b80601f016020809104026020016040519081016040528092919081815260200182805461166a90612f1a565b80156116b75780601f1061168c576101008083540402835291602001916116b7565b820191906000526020600020905b81548152906001019060200180831161169a57829003601f168201915b5050505050611eb7565b7f1aa35c020b397b1bb7bb41edc11d97e964a4fc744a734afce0d451b3bab97cc681856040516116f2929190613589565b60405180910390a1505050505050565b60008061170e83610c3f565b90508073ffffffffffffffffffffffffffffffffffffffff168473ffffffffffffffffffffffffffffffffffffffff161480611750575061174f81856112cb565b5b8061178e57508373ffffffffffffffffffffffffffffffffffffffff16611776846107aa565b73ffffffffffffffffffffffffffffffffffffffff16145b91505092915050565b8273ffffffffffffffffffffffffffffffffffffffff166117b782610c3f565b73ffffffffffffffffffffffffffffffffffffffff161461180d576040517f08c379a000000000000000000000000000000000000000000000000000000000815260040161180490613624565b60405180910390fd5b600073ffffffffffffffffffffffffffffffffffffffff168273ffffffffffffffffffffffffffffffffffffffff160361187c576040517f08c379a0000000000000000000000000000000000000000000000000000000008152600401611873906136b6565b60405180910390fd5b6118898383836001611f24565b8273ffffffffffffffffffffffffffffffffffffffff166118a982610c3f565b73ffffffffffffffffffffffffffffffffffffffff16146118ff576040517f08c379a00000000000000000000000000000000000000000000000000000000081526004016118f690613624565b60405180910390fd5b6004600082815260200190815260200160002060006101000a81549073ffffffffffffffffffffffffffffffffffffffff02191690556001600360008573ffffffffffffffffffffffffffffffffffffffff1673ffffffffffffffffffffffffffffffffffffffff168152602001908152602001600020600082825403925050819055506001600360008473ffffffffffffffffffffffffffffffffffffffff1673ffffffffffffffffffffffffffffffffffffffff16815260200190815260200160002060008282540192505081905550816002600083815260200190815260200160002060006101000a81548173ffffffffffffffffffffffffffffffffffffffff021916908373ffffffffffffffffffffffffffffffffffffffff160217905550808273ffffffffffffffffffffffffffffffffffffffff168473ffffffffffffffffffffffffffffffffffffffff167fddf252ad1be2c89b69c2b068fc378daa952ba7f163c4a11628f55a4df523b3ef60405160405180910390a4611a8b838383600161204a565b505050565b611a986114a1565b73ffffffffffffffffffffffffffffffffffffffff16611ab6610de4565b73ffffffffffffffffffffffffffffffffffffffff1614611b0c576040517f08c379a0000000000000000000000000000000000000000000000000000000008152600401611b0390613722565b60405180910390fd5b565b60006002600083815260200190815260200160002060009054906101000a900473ffffffffffffffffffffffffffffffffffffffff169050919050565b6000600760009054906101000a900473ffffffffffffffffffffffffffffffffffffffff16905081600760006101000a81548173ffffffffffffffffffffffffffffffffffffffff021916908373ffffffffffffffffffffffffffffffffffffffff1602179055508173ffffffffffffffffffffffffffffffffffffffff168173ffffffffffffffffffffffffffffffffffffffff167f8be0079c531659141344cd1fd0a4f28419497f9722a3daafe3b4186f6b6457e060405160405180910390a35050565b8173ffffffffffffffffffffffffffffffffffffffff168373ffffffffffffffffffffffffffffffffffffffff1603611c7f576040517f08c379a0000000000000000000000000000000000000000000000000000000008152600401611c769061378e565b60405180910390fd5b80600560008573ffffffffffffffffffffffffffffffffffffffff1673ffffffffffffffffffffffffffffffffffffffff16815260200190815260200160002060008473ffffffffffffffffffffffffffffffffffffffff1673ffffffffffffffffffffffffffffffffffffffff16815260200190815260200160002060006101000a81548160ff0219169083151502179055508173ffffffffffffffffffffffffffffffffffffffff168373ffffffffffffffffffffffffffffffffffffffff167f17307eab39ab6107e8899845ad3d59bd9653f200f220920489ca2b5937696c3183604051611d709190612769565b60405180910390a3505050565b611d88848484611797565b611d9484848484612050565b611dd3576040517f08c379a0000000000000000000000000000000000000000000000000000000008152600401611dca90613820565b60405180910390fd5b50505050565b606060405180602001604052806000815250905090565b6060611dfb82611456565b6000611e05611dd9565b90506000815111611e255760405180602001604052806000815250611e50565b80611e2f846121d7565b604051602001611e40929190613473565b6040516020818303038152906040525b915050919050565b60008073ffffffffffffffffffffffffffffffffffffffff16611e7a83611b0e565b73ffffffffffffffffffffffffffffffffffffffff1614159050919050565b611eb38282604051806020016040528060008152506122a5565b5050565b611ec082611e58565b611eff576040517f08c379a0000000000000000000000000000000000000000000000000000000008152600401611ef6906138b2565b60405180910390fd5b80600660008481526020019081526020016000209081611f1f9190613a7e565b505050565b600181111561204457600073ffffffffffffffffffffffffffffffffffffffff168473ffffffffffffffffffffffffffffffffffffffff1614611fb85780600360008673ffffffffffffffffffffffffffffffffffffffff1673ffffffffffffffffffffffffffffffffffffffff1681526020019081526020016000206000828254611fb09190613b50565b925050819055505b600073ffffffffffffffffffffffffffffffffffffffff168373ffffffffffffffffffffffffffffffffffffffff16146120435780600360008573ffffffffffffffffffffffffffffffffffffffff1673ffffffffffffffffffffffffffffffffffffffff168152602001908152602001600020600082825461203b9190613188565b925050819055505b5b50505050565b50505050565b60006120718473ffffffffffffffffffffffffffffffffffffffff16612300565b156121ca578373ffffffffffffffffffffffffffffffffffffffff1663150b7a0261209a6114a1565b8786866040518563ffffffff1660e01b81526004016120bc9493929190613bd9565b6020604051808303816000875af19250505080156120f857506040513d601f19601f820116820180604052508101906120f59190613c3a565b60015b61217a573d8060008114612128576040519150601f19603f3d011682016040523d82523d6000602084013e61212d565b606091505b506000815103612172576040517f08c379a000000000000000000000000000000000000000000000000000000000815260040161216990613820565b60405180910390fd5b805181602001fd5b63150b7a0260e01b7bffffffffffffffffffffffffffffffffffffffffffffffffffffffff1916817bffffffffffffffffffffffffffffffffffffffffffffffffffffffff1916149150506121cf565b600190505b949350505050565b6060600060016121e684612323565b01905060008167ffffffffffffffff81111561220557612204612990565b5b6040519080825280601f01601f1916602001820160405280156122375781602001600182028036833780820191505090505b509050600082602001820190505b60011561229a578080600190039150507f3031323334353637383961626364656600000000000000000000000000000000600a86061a8153600a858161228e5761228d613529565b5b04945060008503612245575b819350505050919050565b6122af8383612476565b6122bc6000848484612050565b6122fb576040517f08c379a00000000000000000000000000000000000000000000000000000000081526004016122f290613820565b60405180910390fd5b505050565b6000808273ffffffffffffffffffffffffffffffffffffffff163b119050919050565b600080600090507a184f03e93ff9f4daa797ed6e38ed64bf6a1f0100000000000000008310612381577a184f03e93ff9f4daa797ed6e38ed64bf6a1f010000000000000000838161237757612376613529565b5b0492506040810190505b6d04ee2d6d415b85acef810000000083106123be576d04ee2d6d415b85acef810000000083816123b4576123b3613529565b5b0492506020810190505b662386f26fc1000083106123ed57662386f26fc1000083816123e3576123e2613529565b5b0492506010810190505b6305f5e1008310612416576305f5e100838161240c5761240b613529565b5b0492506008810190505b612710831061243b57612710838161243157612430613529565b5b0492506004810190505b6064831061245e576064838161245457612453613529565b5b0492506002810190505b600a831061246d576001810190505b80915050919050565b600073ffffffffffffffffffffffffffffffffffffffff168273ffffffffffffffffffffffffffffffffffffffff16036124e5576040517f08c379a00000000000000000000000000000000000000000000000000000000081526004016124dc90613cb3565b60405180910390fd5b6124ee81611e58565b1561252e576040517f08c379a000000000000000000000000000000000000000000000000000000000815260040161252590613d1f565b60405180910390fd5b61253c600083836001611f24565b61254581611e58565b15612585576040517f08c379a000000000000000000000000000000000000000000000000000000000815260040161257c90613d1f565b60405180910390fd5b6001600360008473ffffffffffffffffffffffffffffffffffffffff1673ffffffffffffffffffffffffffffffffffffffff16815260200190815260200160002060008282540192505081905550816002600083815260200190815260200160002060006101000a81548173ffffffffffffffffffffffffffffffffffffffff021916908373ffffffffffffffffffffffffffffffffffffffff160217905550808273ffffffffffffffffffffffffffffffffffffffff16600073ffffffffffffffffffffffffffffffffffffffff167fddf252ad1be2c89b69c2b068fc378daa952ba7f163c4a11628f55a4df523b3ef60405160405180910390a461268f60008383600161204a565b5050565b6040518060600160405280600390602082028036833780820191505090505090565b6000604051905090565b600080fd5b600080fd5b60007fffffffff0000000000000000000000000000000000000000000000000000000082169050919050565b6126fe816126c9565b811461270957600080fd5b50565b60008135905061271b816126f5565b92915050565b600060208284031215612737576127366126bf565b5b60006127458482850161270c565b91505092915050565b60008115159050919050565b6127638161274e565b82525050565b600060208201905061277e600083018461275a565b92915050565b600081519050919050565b600082825260208201905092915050565b60005b838110156127be5780820151818401526020810190506127a3565b60008484015250505050565b6000601f19601f8301169050919050565b60006127e682612784565b6127f0818561278f565b93506128008185602086016127a0565b612809816127ca565b840191505092915050565b6000602082019050818103600083015261282e81846127db565b905092915050565b6000819050919050565b61284981612836565b811461285457600080fd5b50565b60008135905061286681612840565b92915050565b600060208284031215612882576128816126bf565b5b600061289084828501612857565b91505092915050565b600073ffffffffffffffffffffffffffffffffffffffff82169050919050565b60006128c482612899565b9050919050565b6128d4816128b9565b82525050565b60006020820190506128ef60008301846128cb565b92915050565b6128fe816128b9565b811461290957600080fd5b50565b60008135905061291b816128f5565b92915050565b60008060408385031215612938576129376126bf565b5b60006129468582860161290c565b925050602061295785828601612857565b9150509250929050565b61296a81612836565b82525050565b60006020820190506129856000830184612961565b92915050565b600080fd5b7f4e487b7100000000000000000000000000000000000000000000000000000000600052604160045260246000fd5b6129c8826127ca565b810181811067ffffffffffffffff821117156129e7576129e6612990565b5b80604052505050565b60006129fa6126b5565b9050612a0682826129bf565b919050565b600067ffffffffffffffff821115612a2657612a25612990565b5b602082029050602081019050919050565b600080fd5b6000612a4f612a4a84612a0b565b6129f0565b90508083825260208201905060208402830185811115612a7257612a71612a37565b5b835b81811015612a9b5780612a878882612857565b845260208401935050602081019050612a74565b5050509392505050565b600082601f830112612aba57612ab961298b565b5b8135612aca848260208601612a3c565b91505092915050565b60008060408385031215612aea57612ae96126bf565b5b6000612af885828601612857565b925050602083013567ffffffffffffffff811115612b1957612b186126c4565b5b612b2585828601612aa5565b9150509250929050565b600080600060608486031215612b4857612b476126bf565b5b6000612b568682870161290c565b9350506020612b678682870161290c565b9250506040612b7886828701612857565b9150509250925092565b7f4e487b7100000000000000000000000000000000000000000000000000000000600052602160045260246000fd5b60038110612bc257612bc1612b82565b5b50565b6000819050612bd382612bb1565b919050565b6000612be382612bc5565b9050919050565b612bf381612bd8565b82525050565b6000602082019050612c0e6000830184612bea565b92915050565b600060039050919050565b600081905092915050565b6000819050919050565b612c3d81612836565b82525050565b6000612c4f8383612c34565b60208301905092915050565b6000602082019050919050565b612c7181612c14565b612c7b8184612c1f565b9250612c8682612c2a565b8060005b83811015612cb7578151612c9e8782612c43565b9650612ca983612c5b565b925050600181019050612c8a565b505050505050565b6000606082019050612cd46000830184612c68565b92915050565b600060208284031215612cf057612cef6126bf565b5b6000612cfe8482850161290c565b91505092915050565b612d108161274e565b8114612d1b57600080fd5b50565b600081359050612d2d81612d07565b92915050565b60008060408385031215612d4a57612d496126bf565b5b6000612d588582860161290c565b9250506020612d6985828601612d1e565b9150509250929050565b600080fd5b600067ffffffffffffffff821115612d9357612d92612990565b5b612d9c826127ca565b9050602081019050919050565b82818337600083830152505050565b6000612dcb612dc684612d78565b6129f0565b905082815260208101848484011115612de757612de6612d73565b5b612df2848285612da9565b509392505050565b600082601f830112612e0f57612e0e61298b565b5b8135612e1f848260208601612db8565b91505092915050565b60008060008060808587031215612e4257612e416126bf565b5b6000612e508782880161290c565b9450506020612e618782880161290c565b9350506040612e7287828801612857565b925050606085013567ffffffffffffffff811115612e9357612e926126c4565b5b612e9f87828801612dfa565b91505092959194509250565b60008060408385031215612ec257612ec16126bf565b5b6000612ed08582860161290c565b9250506020612ee18582860161290c565b9150509250929050565b7f4e487b7100000000000000000000000000000000000000000000000000000000600052602260045260246000fd5b60006002820490506001821680612f3257607f821691505b602082108103612f4557612f44612eeb565b5b50919050565b7f4552433732313a20617070726f76616c20746f2063757272656e74206f776e6560008201527f7200000000000000000000000000000000000000000000000000000000000000602082015250565b6000612fa760218361278f565b9150612fb282612f4b565b604082019050919050565b60006020820190508181036000830152612fd681612f9a565b9050919050565b7f4552433732313a20617070726f76652063616c6c6572206973206e6f7420746f60008201527f6b656e206f776e6572206f7220617070726f76656420666f7220616c6c000000602082015250565b6000613039603d8361278f565b915061304482612fdd565b604082019050919050565b600060208201905081810360008301526130688161302c565b9050919050565b600060408201905061308460008301856128cb565b61309160208301846128cb565b9392505050565b7f4552433732313a2063616c6c6572206973206e6f7420746f6b656e206f776e6560008201527f72206f7220617070726f76656400000000000000000000000000000000000000602082015250565b60006130f4602d8361278f565b91506130ff82613098565b604082019050919050565b60006020820190508181036000830152613123816130e7565b9050919050565b7f4e487b7100000000000000000000000000000000000000000000000000000000600052603260045260246000fd5b7f4e487b7100000000000000000000000000000000000000000000000000000000600052601160045260246000fd5b600061319382612836565b915061319e83612836565b92508282019050808211156131b6576131b5613159565b5b92915050565b600061ffff82169050919050565b60006131d5826131bc565b915061ffff82036131e9576131e8613159565b5b600182019050919050565b600081905092915050565b50565b600061320f6000836131f4565b915061321a826131ff565b600082019050919050565b600061323082613202565b9150819050919050565b7f4552433732313a20696e76616c696420746f6b656e2049440000000000000000600082015250565b600061327060188361278f565b915061327b8261323a565b602082019050919050565b6000602082019050818103600083015261329f81613263565b9050919050565b7f4552433732313a2061646472657373207a65726f206973206e6f74206120766160008201527f6c6964206f776e65720000000000000000000000000000000000000000000000602082015250565b600061330260298361278f565b915061330d826132a6565b604082019050919050565b60006020820190508181036000830152613331816132f5565b9050919050565b6000819050919050565b61334b81613338565b82525050565b600067ffffffffffffffff82169050919050565b61336e81613351565b82525050565b61337d816131bc565b82525050565b600063ffffffff82169050919050565b61339c81613383565b82525050565b600060a0820190506133b76000830188613342565b6133c46020830187613365565b6133d16040830186613374565b6133de6060830185613393565b6133eb6080830184613393565b9695505050505050565b60008151905061340481612840565b92915050565b6000602082840312156134205761341f6126bf565b5b600061342e848285016133f5565b91505092915050565b600081905092915050565b600061344d82612784565b6134578185613437565b93506134678185602086016127a0565b80840191505092915050565b600061347f8285613442565b915061348b8284613442565b91508190509392505050565b7f4f776e61626c653a206e6577206f776e657220697320746865207a65726f206160008201527f6464726573730000000000000000000000000000000000000000000000000000602082015250565b60006134f360268361278f565b91506134fe82613497565b604082019050919050565b60006020820190508181036000830152613522816134e6565b9050919050565b7f4e487b7100000000000000000000000000000000000000000000000000000000600052601260045260246000fd5b600061356382612836565b915061356e83612836565b92508261357e5761357d613529565b5b828206905092915050565b600060408201905061359e6000830185612bea565b6135ab60208301846128cb565b9392505050565b7f4552433732313a207472616e736665722066726f6d20696e636f72726563742060008201527f6f776e6572000000000000000000000000000000000000000000000000000000602082015250565b600061360e60258361278f565b9150613619826135b2565b604082019050919050565b6000602082019050818103600083015261363d81613601565b9050919050565b7f4552433732313a207472616e7366657220746f20746865207a65726f2061646460008201527f7265737300000000000000000000000000000000000000000000000000000000602082015250565b60006136a060248361278f565b91506136ab82613644565b604082019050919050565b600060208201905081810360008301526136cf81613693565b9050919050565b7f4f776e61626c653a2063616c6c6572206973206e6f7420746865206f776e6572600082015250565b600061370c60208361278f565b9150613717826136d6565b602082019050919050565b6000602082019050818103600083015261373b816136ff565b9050919050565b7f4552433732313a20617070726f766520746f2063616c6c657200000000000000600082015250565b600061377860198361278f565b915061378382613742565b602082019050919050565b600060208201905081810360008301526137a78161376b565b9050919050565b7f4552433732313a207472616e7366657220746f206e6f6e20455243373231526560008201527f63656976657220696d706c656d656e7465720000000000000000000000000000602082015250565b600061380a60328361278f565b9150613815826137ae565b604082019050919050565b60006020820190508181036000830152613839816137fd565b9050919050565b7f45524337323155524953746f726167653a2055524920736574206f66206e6f6e60008201527f6578697374656e7420746f6b656e000000000000000000000000000000000000602082015250565b600061389c602e8361278f565b91506138a782613840565b604082019050919050565b600060208201905081810360008301526138cb8161388f565b9050919050565b60008190508160005260206000209050919050565b60006020601f8301049050919050565b600082821b905092915050565b6000600883026139347fffffffffffffffffffffffffffffffffffffffffffffffffffffffffffffffff826138f7565b61393e86836138f7565b95508019841693508086168417925050509392505050565b6000819050919050565b600061397b61397661397184612836565b613956565b612836565b9050919050565b6000819050919050565b61399583613960565b6139a96139a182613982565b848454613904565b825550505050565b600090565b6139be6139b1565b6139c981848461398c565b505050565b5b818110156139ed576139e26000826139b6565b6001810190506139cf565b5050565b601f821115613a3257613a03816138d2565b613a0c846138e7565b81016020851015613a1b578190505b613a2f613a27856138e7565b8301826139ce565b50505b505050565b600082821c905092915050565b6000613a5560001984600802613a37565b1980831691505092915050565b6000613a6e8383613a44565b9150826002028217905092915050565b613a8782612784565b67ffffffffffffffff811115613aa057613a9f612990565b5b613aaa8254612f1a565b613ab58282856139f1565b600060209050601f831160018114613ae85760008415613ad6578287015190505b613ae08582613a62565b865550613b48565b601f198416613af6866138d2565b60005b82811015613b1e57848901518255600182019150602085019450602081019050613af9565b86831015613b3b5784890151613b37601f891682613a44565b8355505b6001600288020188555050505b505050505050565b6000613b5b82612836565b9150613b6683612836565b9250828203905081811115613b7e57613b7d613159565b5b92915050565b600081519050919050565b600082825260208201905092915050565b6000613bab82613b84565b613bb58185613b8f565b9350613bc58185602086016127a0565b613bce816127ca565b840191505092915050565b6000608082019050613bee60008301876128cb565b613bfb60208301866128cb565b613c086040830185612961565b8181036060830152613c1a8184613ba0565b905095945050505050565b600081519050613c34816126f5565b92915050565b600060208284031215613c5057613c4f6126bf565b5b6000613c5e84828501613c25565b91505092915050565b7f4552433732313a206d696e7420746f20746865207a65726f2061646472657373600082015250565b6000613c9d60208361278f565b9150613ca882613c67565b602082019050919050565b60006020820190508181036000830152613ccc81613c90565b9050919050565b7f4552433732313a20746f6b656e20616c7265616479206d696e74656400000000600082015250565b6000613d09601c8361278f565b9150613d1482613cd3565b602082019050919050565b60006020820190508181036000830152613d3881613cfc565b905091905056fea2646970667358221220bf2c04a619b1074c1b2fdb379b91fdb204f86c6576da07f894a69a3d638251cf64736f6c63430008110033",
  "linkReferences": {},
  "deployedLinkReferences": {}
}